{
  "contractName": "carRegistrationContract",
  "abi": [
    {
      "inputs": [
        {
          "internalType": "uint8",
          "name": "_fee",
          "type": "uint8"
        }
      ],
      "stateMutability": "nonpayable",
      "type": "constructor"
    },
    {
      "anonymous": false,
      "inputs": [
        {
          "indexed": true,
          "internalType": "address",
          "name": "owner",
          "type": "address"
        },
        {
          "indexed": true,
          "internalType": "address",
          "name": "approved",
          "type": "address"
        },
        {
          "indexed": true,
          "internalType": "uint256",
          "name": "tokenId",
          "type": "uint256"
        }
      ],
      "name": "Approval",
      "type": "event"
    },
    {
      "anonymous": false,
      "inputs": [
        {
          "indexed": true,
          "internalType": "address",
          "name": "owner",
          "type": "address"
        },
        {
          "indexed": true,
          "internalType": "address",
          "name": "operator",
          "type": "address"
        },
        {
          "indexed": false,
          "internalType": "bool",
          "name": "approved",
          "type": "bool"
        }
      ],
      "name": "ApprovalForAll",
      "type": "event"
    },
    {
      "anonymous": false,
      "inputs": [
        {
          "indexed": true,
          "internalType": "address",
          "name": "previousOwner",
          "type": "address"
        },
        {
          "indexed": true,
          "internalType": "address",
          "name": "newOwner",
          "type": "address"
        }
      ],
      "name": "OwnershipTransferred",
      "type": "event"
    },
    {
      "anonymous": false,
      "inputs": [
        {
          "indexed": true,
          "internalType": "address",
          "name": "from",
          "type": "address"
        },
        {
          "indexed": true,
          "internalType": "address",
          "name": "to",
          "type": "address"
        },
        {
          "indexed": true,
          "internalType": "uint256",
          "name": "tokenId",
          "type": "uint256"
        }
      ],
      "name": "Transfer",
      "type": "event"
    },
    {
      "inputs": [
        {
          "internalType": "address",
          "name": "to",
          "type": "address"
        },
        {
          "internalType": "uint256",
          "name": "tokenId",
          "type": "uint256"
        }
      ],
      "name": "approve",
      "outputs": [],
      "stateMutability": "nonpayable",
      "type": "function"
    },
    {
      "inputs": [
        {
          "internalType": "address",
          "name": "owner",
          "type": "address"
        }
      ],
      "name": "balanceOf",
      "outputs": [
        {
          "internalType": "uint256",
          "name": "",
          "type": "uint256"
        }
      ],
      "stateMutability": "view",
      "type": "function"
    },
    {
      "inputs": [
        {
          "internalType": "uint256",
          "name": "tokenId",
          "type": "uint256"
        }
      ],
      "name": "getApproved",
      "outputs": [
        {
          "internalType": "address",
          "name": "",
          "type": "address"
        }
      ],
      "stateMutability": "view",
      "type": "function"
    },
    {
      "inputs": [
        {
          "internalType": "address",
          "name": "owner",
          "type": "address"
        },
        {
          "internalType": "address",
          "name": "operator",
          "type": "address"
        }
      ],
      "name": "isApprovedForAll",
      "outputs": [
        {
          "internalType": "bool",
          "name": "",
          "type": "bool"
        }
      ],
      "stateMutability": "view",
      "type": "function"
    },
    {
      "inputs": [],
      "name": "name",
      "outputs": [
        {
          "internalType": "string",
          "name": "",
          "type": "string"
        }
      ],
      "stateMutability": "view",
      "type": "function"
    },
    {
      "inputs": [],
      "name": "owner",
      "outputs": [
        {
          "internalType": "address",
          "name": "",
          "type": "address"
        }
      ],
      "stateMutability": "view",
      "type": "function"
    },
    {
      "inputs": [
        {
          "internalType": "uint256",
          "name": "tokenId",
          "type": "uint256"
        }
      ],
      "name": "ownerOf",
      "outputs": [
        {
          "internalType": "address",
          "name": "",
          "type": "address"
        }
      ],
      "stateMutability": "view",
      "type": "function"
    },
    {
      "inputs": [],
      "name": "renounceOwnership",
      "outputs": [],
      "stateMutability": "nonpayable",
      "type": "function"
    },
    {
      "inputs": [
        {
          "internalType": "address",
          "name": "from",
          "type": "address"
        },
        {
          "internalType": "address",
          "name": "to",
          "type": "address"
        },
        {
          "internalType": "uint256",
          "name": "tokenId",
          "type": "uint256"
        }
      ],
      "name": "safeTransferFrom",
      "outputs": [],
      "stateMutability": "nonpayable",
      "type": "function"
    },
    {
      "inputs": [
        {
          "internalType": "address",
          "name": "from",
          "type": "address"
        },
        {
          "internalType": "address",
          "name": "to",
          "type": "address"
        },
        {
          "internalType": "uint256",
          "name": "tokenId",
          "type": "uint256"
        },
        {
          "internalType": "bytes",
          "name": "_data",
          "type": "bytes"
        }
      ],
      "name": "safeTransferFrom",
      "outputs": [],
      "stateMutability": "nonpayable",
      "type": "function"
    },
    {
      "inputs": [
        {
          "internalType": "address",
          "name": "operator",
          "type": "address"
        },
        {
          "internalType": "bool",
          "name": "approved",
          "type": "bool"
        }
      ],
      "name": "setApprovalForAll",
      "outputs": [],
      "stateMutability": "nonpayable",
      "type": "function"
    },
    {
      "inputs": [
        {
          "internalType": "bytes4",
          "name": "interfaceId",
          "type": "bytes4"
        }
      ],
      "name": "supportsInterface",
      "outputs": [
        {
          "internalType": "bool",
          "name": "",
          "type": "bool"
        }
      ],
      "stateMutability": "view",
      "type": "function"
    },
    {
      "inputs": [],
      "name": "symbol",
      "outputs": [
        {
          "internalType": "string",
          "name": "",
          "type": "string"
        }
      ],
      "stateMutability": "view",
      "type": "function"
    },
    {
      "inputs": [
        {
          "internalType": "uint256",
          "name": "tokenId",
          "type": "uint256"
        },
        {
          "internalType": "uint8",
          "name": "URIType",
          "type": "uint8"
        }
      ],
      "name": "tokenURI",
      "outputs": [
        {
          "internalType": "string",
          "name": "",
          "type": "string"
        }
      ],
      "stateMutability": "view",
      "type": "function"
    },
    {
      "inputs": [
        {
          "internalType": "uint256",
          "name": "tokenId",
          "type": "uint256"
        }
      ],
      "name": "tokenURI",
      "outputs": [
        {
          "internalType": "string",
          "name": "",
          "type": "string"
        }
      ],
      "stateMutability": "view",
      "type": "function"
    },
    {
      "inputs": [
        {
          "internalType": "address",
          "name": "from",
          "type": "address"
        },
        {
          "internalType": "address",
          "name": "to",
          "type": "address"
        },
        {
          "internalType": "uint256",
          "name": "tokenId",
          "type": "uint256"
        }
      ],
      "name": "transferFrom",
      "outputs": [],
      "stateMutability": "nonpayable",
      "type": "function"
    },
    {
      "inputs": [
        {
          "internalType": "address",
          "name": "newOwner",
          "type": "address"
        }
      ],
      "name": "transferOwnership",
      "outputs": [],
      "stateMutability": "nonpayable",
      "type": "function"
    },
    {
      "inputs": [
        {
          "internalType": "string",
          "name": "_tokenURI",
          "type": "string"
        },
        {
          "internalType": "address",
          "name": "_manteinanceAgency",
          "type": "address"
        },
        {
          "internalType": "address",
          "name": "_incidentAgency",
          "type": "address"
        }
      ],
      "name": "mintNFT",
      "outputs": [
        {
          "internalType": "uint256",
          "name": "",
          "type": "uint256"
        }
      ],
      "stateMutability": "nonpayable",
      "type": "function"
    },
    {
      "inputs": [
        {
          "internalType": "uint256",
          "name": "_tokenId",
          "type": "uint256"
        },
        {
          "internalType": "address",
          "name": "_allowed",
          "type": "address"
        }
      ],
      "name": "setAllowedManteinance",
      "outputs": [],
      "stateMutability": "nonpayable",
      "type": "function"
    },
    {
      "inputs": [
        {
          "internalType": "uint256",
          "name": "_tokenId",
          "type": "uint256"
        },
        {
          "internalType": "address",
          "name": "_allowed",
          "type": "address"
        }
      ],
      "name": "setAllowedIncidents",
      "outputs": [],
      "stateMutability": "nonpayable",
      "type": "function"
    },
    {
      "inputs": [
        {
          "internalType": "uint8",
          "name": "_newFee",
          "type": "uint8"
        }
      ],
      "name": "setFee",
      "outputs": [],
      "stateMutability": "nonpayable",
      "type": "function"
    },
    {
      "inputs": [
        {
          "internalType": "uint256",
          "name": "_tokenId",
          "type": "uint256"
        },
        {
          "internalType": "string",
          "name": "_tokenURI",
          "type": "string"
        }
      ],
      "name": "setURIManteinance",
      "outputs": [],
      "stateMutability": "nonpayable",
      "type": "function"
    },
    {
      "inputs": [
        {
          "internalType": "uint256",
          "name": "_tokenId",
          "type": "uint256"
        },
        {
          "internalType": "string",
          "name": "_tokenURI",
          "type": "string"
        }
      ],
      "name": "setURIIncidents",
      "outputs": [],
      "stateMutability": "nonpayable",
      "type": "function"
    },
    {
      "inputs": [
        {
          "internalType": "uint256",
          "name": "_tokenId",
          "type": "uint256"
        },
        {
          "internalType": "string",
          "name": "_tokenURI",
          "type": "string"
        }
      ],
      "name": "setURI",
      "outputs": [],
      "stateMutability": "nonpayable",
      "type": "function"
    },
    {
      "inputs": [
        {
          "internalType": "uint256",
          "name": "_tokenId",
          "type": "uint256"
        },
        {
          "internalType": "address",
          "name": "_seller",
          "type": "address"
        },
        {
          "internalType": "uint256",
          "name": "_price",
          "type": "uint256"
        }
      ],
      "name": "tranferIntention",
      "outputs": [],
      "stateMutability": "nonpayable",
      "type": "function"
    },
    {
      "inputs": [
        {
          "internalType": "uint256",
          "name": "_tokenId",
          "type": "uint256"
        }
      ],
      "name": "deleteTranferIntention",
      "outputs": [],
      "stateMutability": "nonpayable",
      "type": "function"
    },
    {
      "inputs": [
        {
          "internalType": "uint256",
          "name": "_tokenId",
          "type": "uint256"
        }
      ],
      "name": "payTranfer",
      "outputs": [],
      "stateMutability": "payable",
      "type": "function"
    },
    {
      "inputs": [
        {
          "internalType": "uint256",
          "name": "_tokenId",
          "type": "uint256"
        }
      ],
      "name": "carTransfer",
      "outputs": [],
      "stateMutability": "nonpayable",
      "type": "function"
    }
  ],
  "bytecode": "0x60806040523480156200001157600080fd5b5060405162005069380380620050698339818101604052810190620000379190620002da565b6040518060400160405280601c81526020017f4175746f6d6f74697665526567697374726174696f6e4167656e6379000000008152506040518060400160405280600381526020017f41524100000000000000000000000000000000000000000000000000000000008152508160009080519060200190620000bb929190620001e7565b508060019080519060200190620000d4929190620001e7565b505050620000f7620000eb6200011960201b60201c565b6200012160201b60201c565b80600e60006101000a81548160ff021916908360ff1602179055505062000370565b600033905090565b6000600960009054906101000a900473ffffffffffffffffffffffffffffffffffffffff16905081600960006101000a81548173ffffffffffffffffffffffffffffffffffffffff021916908373ffffffffffffffffffffffffffffffffffffffff1602179055508173ffffffffffffffffffffffffffffffffffffffff168173ffffffffffffffffffffffffffffffffffffffff167f8be0079c531659141344cd1fd0a4f28419497f9722a3daafe3b4186f6b6457e060405160405180910390a35050565b828054620001f5906200033b565b90600052602060002090601f01602090048101928262000219576000855562000265565b82601f106200023457805160ff191683800117855562000265565b8280016001018555821562000265579182015b828111156200026457825182559160200191906001019062000247565b5b50905062000274919062000278565b5090565b5b808211156200029357600081600090555060010162000279565b5090565b600080fd5b600060ff82169050919050565b620002b4816200029c565b8114620002c057600080fd5b50565b600081519050620002d481620002a9565b92915050565b600060208284031215620002f357620002f262000297565b5b60006200030384828501620002c3565b91505092915050565b7f4e487b7100000000000000000000000000000000000000000000000000000000600052602260045260246000fd5b600060028204905060018216806200035457607f821691505b6020821081036200036a57620003696200030c565b5b50919050565b614ce980620003806000396000f3fe6080604052600436106101b75760003560e01c80638da5cb5b116100ec578063b88d4fde1161008a578063cb122a0911610064578063cb122a0914610607578063e2a6cd6d14610630578063e985e9c514610659578063f2fde38b14610696576101b7565b8063b88d4fde14610585578063bf49db01146105ae578063c87b56dd146105ca576101b7565b80639fe9f229116100c65780639fe9f229146104cd578063a22cb465146104f6578063a7b8eb611461051f578063aad8a27814610548576101b7565b80638da5cb5b1461044e57806395d89b41146104795780639b96cfb9146104a4576101b7565b806342842e0e1161015957806370a082311161013357806370a08231146103a8578063715018a6146103e5578063862440e2146103fc578063889c4a9a14610425576101b7565b806342842e0e146103055780635cc518ba1461032e5780636352211e1461036b576101b7565b8063095ea7b311610195578063095ea7b31461026157806323b872dd1461028a5780632fa3dc80146102b3578063342a55bb146102dc576101b7565b806301ffc9a7146101bc57806306fdde03146101f9578063081812fc14610224575b600080fd5b3480156101c857600080fd5b506101e360048036038101906101de9190613186565b6106bf565b6040516101f091906131ce565b60405180910390f35b34801561020557600080fd5b5061020e6107a1565b60405161021b9190613282565b60405180910390f35b34801561023057600080fd5b5061024b600480360381019061024691906132da565b610833565b6040516102589190613348565b60405180910390f35b34801561026d57600080fd5b506102886004803603810190610283919061338f565b6108b8565b005b34801561029657600080fd5b506102b160048036038101906102ac91906133cf565b6109cf565b005b3480156102bf57600080fd5b506102da60048036038101906102d59190613422565b610a2f565b005b3480156102e857600080fd5b5061030360048036038101906102fe91906135aa565b610bad565b005b34801561031157600080fd5b5061032c600480360381019061032791906133cf565b610cad565b005b34801561033a57600080fd5b506103556004803603810190610350919061363f565b610ccd565b6040516103629190613282565b60405180910390f35b34801561037757600080fd5b50610392600480360381019061038d91906132da565b610f53565b60405161039f9190613348565b60405180910390f35b3480156103b457600080fd5b506103cf60048036038101906103ca919061367f565b611004565b6040516103dc91906136bb565b60405180910390f35b3480156103f157600080fd5b506103fa6110bb565b005b34801561040857600080fd5b50610423600480360381019061041e91906135aa565b611143565b005b34801561043157600080fd5b5061044c600480360381019061044791906136d6565b611217565b005b34801561045a57600080fd5b50610463611331565b6040516104709190613348565b60405180910390f35b34801561048557600080fd5b5061048e61135b565b60405161049b9190613282565b60405180910390f35b3480156104b057600080fd5b506104cb60048036038101906104c691906136d6565b6113ed565b005b3480156104d957600080fd5b506104f460048036038101906104ef91906132da565b611507565b005b34801561050257600080fd5b5061051d60048036038101906105189190613742565b61165e565b005b34801561052b57600080fd5b50610546600480360381019061054191906135aa565b611674565b005b34801561055457600080fd5b5061056f600480360381019061056a9190613782565b611774565b60405161057c91906136bb565b60405180910390f35b34801561059157600080fd5b506105ac60048036038101906105a79190613892565b6118cd565b005b6105c860048036038101906105c391906132da565b61192f565b005b3480156105d657600080fd5b506105f160048036038101906105ec91906132da565b611b4a565b6040516105fe9190613282565b60405180910390f35b34801561061357600080fd5b5061062e60048036038101906106299190613915565b611c9b565b005b34801561063c57600080fd5b50610657600480360381019061065291906132da565b611d8c565b005b34801561066557600080fd5b50610680600480360381019061067b9190613942565b612013565b60405161068d91906131ce565b60405180910390f35b3480156106a257600080fd5b506106bd60048036038101906106b8919061367f565b6120a7565b005b60007f80ac58cd000000000000000000000000000000000000000000000000000000007bffffffffffffffffffffffffffffffffffffffffffffffffffffffff1916827bffffffffffffffffffffffffffffffffffffffffffffffffffffffff1916148061078a57507f5b5e139f000000000000000000000000000000000000000000000000000000007bffffffffffffffffffffffffffffffffffffffffffffffffffffffff1916827bffffffffffffffffffffffffffffffffffffffffffffffffffffffff1916145b8061079a57506107998261219e565b5b9050919050565b6060600080546107b0906139b1565b80601f01602080910402602001604051908101604052809291908181526020018280546107dc906139b1565b80156108295780601f106107fe57610100808354040283529160200191610829565b820191906000526020600020905b81548152906001019060200180831161080c57829003601f168201915b5050505050905090565b600061083e82612208565b61087d576040517f08c379a000000000000000000000000000000000000000000000000000000000815260040161087490613a54565b60405180910390fd5b6004600083815260200190815260200160002060009054906101000a900473ffffffffffffffffffffffffffffffffffffffff169050919050565b60006108c382610f53565b90508073ffffffffffffffffffffffffffffffffffffffff168373ffffffffffffffffffffffffffffffffffffffff1603610933576040517f08c379a000000000000000000000000000000000000000000000000000000000815260040161092a90613ae6565b60405180910390fd5b8073ffffffffffffffffffffffffffffffffffffffff16610952612274565b73ffffffffffffffffffffffffffffffffffffffff16148061098157506109808161097b612274565b612013565b5b6109c0576040517f08c379a00000000000000000000000000000000000000000000000000000000081526004016109b790613b78565b60405180910390fd5b6109ca838361227c565b505050565b6109e06109da612274565b82612335565b610a1f576040517f08c379a0000000000000000000000000000000000000000000000000000000008152600401610a1690613c0a565b60405180910390fd5b610a2a838383612413565b505050565b610a3883612208565b610a77576040517f08c379a0000000000000000000000000000000000000000000000000000000008152600401610a6e90613c9c565b60405180910390fd5b3373ffffffffffffffffffffffffffffffffffffffff16610a9784610f53565b73ffffffffffffffffffffffffffffffffffffffff1614610aed576040517f08c379a0000000000000000000000000000000000000000000000000000000008152600401610ae490613d08565b60405180910390fd5b60405180606001604052808373ffffffffffffffffffffffffffffffffffffffff16815260200182815260200160001515815250600d600085815260200190815260200160002060008201518160000160006101000a81548173ffffffffffffffffffffffffffffffffffffffff021916908373ffffffffffffffffffffffffffffffffffffffff1602179055506020820151816001015560408201518160020160006101000a81548160ff021916908315150217905550905050505050565b610bb682612208565b610bf5576040517f08c379a0000000000000000000000000000000000000000000000000000000008152600401610bec90613d74565b60405180910390fd5b600b600083815260200190815260200160002060009054906101000a900473ffffffffffffffffffffffffffffffffffffffff1673ffffffffffffffffffffffffffffffffffffffff163373ffffffffffffffffffffffffffffffffffffffff161480610c945750610c65611331565b73ffffffffffffffffffffffffffffffffffffffff163373ffffffffffffffffffffffffffffffffffffffff16145b610c9d57600080fd5b610ca982826001612679565b5050565b610cc8838383604051806020016040528060008152506118cd565b505050565b6060610cd883612208565b610d17576040517f08c379a0000000000000000000000000000000000000000000000000000000008152600401610d0e90613e06565b60405180910390fd5b60008260ff161480610d2c575060018260ff16145b80610d3a575060028260ff16145b610d79576040517f08c379a0000000000000000000000000000000000000000000000000000000008152600401610d7090613e98565b60405180910390fd5b606060008360ff1603610d9757610d8f84611b4a565b915050610f4d565b60018360ff1603610e4157600760008581526020019081526020016000208054610dc0906139b1565b80601f0160208091040260200160405190810160405280929190818152602001828054610dec906139b1565b8015610e395780601f10610e0e57610100808354040283529160200191610e39565b820191906000526020600020905b815481529060010190602001808311610e1c57829003601f168201915b505050505090505b60028360ff1603610eeb57600860008581526020019081526020016000208054610e6a906139b1565b80601f0160208091040260200160405190810160405280929190818152602001828054610e96906139b1565b8015610ee35780601f10610eb857610100808354040283529160200191610ee3565b820191906000526020600020905b815481529060010190602001808311610ec657829003601f168201915b505050505090505b6000610ef56127a6565b90506000815103610f0a578192505050610f4d565b600082511115610f3f578082604051602001610f27929190613ef4565b60405160208183030381529060405292505050610f4d565b610f4885611b4a565b925050505b92915050565b6000806002600084815260200190815260200160002060009054906101000a900473ffffffffffffffffffffffffffffffffffffffff169050600073ffffffffffffffffffffffffffffffffffffffff168173ffffffffffffffffffffffffffffffffffffffff1603610ffb576040517f08c379a0000000000000000000000000000000000000000000000000000000008152600401610ff290613f8a565b60405180910390fd5b80915050919050565b60008073ffffffffffffffffffffffffffffffffffffffff168273ffffffffffffffffffffffffffffffffffffffff1603611074576040517f08c379a000000000000000000000000000000000000000000000000000000000815260040161106b9061401c565b60405180910390fd5b600360008373ffffffffffffffffffffffffffffffffffffffff1673ffffffffffffffffffffffffffffffffffffffff168152602001908152602001600020549050919050565b6110c3612274565b73ffffffffffffffffffffffffffffffffffffffff166110e1611331565b73ffffffffffffffffffffffffffffffffffffffff1614611137576040517f08c379a000000000000000000000000000000000000000000000000000000000815260040161112e90614088565b60405180910390fd5b61114160006127bd565b565b61114b612274565b73ffffffffffffffffffffffffffffffffffffffff16611169611331565b73ffffffffffffffffffffffffffffffffffffffff16146111bf576040517f08c379a00000000000000000000000000000000000000000000000000000000081526004016111b690614088565b60405180910390fd5b6111c882612208565b611207576040517f08c379a00000000000000000000000000000000000000000000000000000000081526004016111fe90613d74565b60405180910390fd5b61121382826000612679565b5050565b61121f612274565b73ffffffffffffffffffffffffffffffffffffffff1661123d611331565b73ffffffffffffffffffffffffffffffffffffffff1614611293576040517f08c379a000000000000000000000000000000000000000000000000000000000815260040161128a90614088565b60405180910390fd5b61129c82612208565b6112db576040517f08c379a00000000000000000000000000000000000000000000000000000000081526004016112d290613d74565b60405180910390fd5b80600b600084815260200190815260200160002060006101000a81548173ffffffffffffffffffffffffffffffffffffffff021916908373ffffffffffffffffffffffffffffffffffffffff1602179055505050565b6000600960009054906101000a900473ffffffffffffffffffffffffffffffffffffffff16905090565b60606001805461136a906139b1565b80601f0160208091040260200160405190810160405280929190818152602001828054611396906139b1565b80156113e35780601f106113b8576101008083540402835291602001916113e3565b820191906000526020600020905b8154815290600101906020018083116113c657829003601f168201915b5050505050905090565b6113f5612274565b73ffffffffffffffffffffffffffffffffffffffff16611413611331565b73ffffffffffffffffffffffffffffffffffffffff1614611469576040517f08c379a000000000000000000000000000000000000000000000000000000000815260040161146090614088565b60405180910390fd5b61147282612208565b6114b1576040517f08c379a00000000000000000000000000000000000000000000000000000000081526004016114a890613d74565b60405180910390fd5b80600c600084815260200190815260200160002060006101000a81548173ffffffffffffffffffffffffffffffffffffffff021916908373ffffffffffffffffffffffffffffffffffffffff1602179055505050565b61151081612208565b61154f576040517f08c379a000000000000000000000000000000000000000000000000000000000815260040161154690613c9c565b60405180910390fd5b611557611331565b73ffffffffffffffffffffffffffffffffffffffff163373ffffffffffffffffffffffffffffffffffffffff1614806115c357503373ffffffffffffffffffffffffffffffffffffffff166115ab82610f53565b73ffffffffffffffffffffffffffffffffffffffff16145b611602576040517f08c379a00000000000000000000000000000000000000000000000000000000081526004016115f990613d08565b60405180910390fd5b600d6000828152602001908152602001600020600080820160006101000a81549073ffffffffffffffffffffffffffffffffffffffff021916905560018201600090556002820160006101000a81549060ff0219169055505050565b611670611669612274565b8383612883565b5050565b61167d82612208565b6116bc576040517f08c379a00000000000000000000000000000000000000000000000000000000081526004016116b390613d74565b60405180910390fd5b600c600083815260200190815260200160002060009054906101000a900473ffffffffffffffffffffffffffffffffffffffff1673ffffffffffffffffffffffffffffffffffffffff163373ffffffffffffffffffffffffffffffffffffffff16148061175b575061172c611331565b73ffffffffffffffffffffffffffffffffffffffff163373ffffffffffffffffffffffffffffffffffffffff16145b61176457600080fd5b61177082826002612679565b5050565b600061177e612274565b73ffffffffffffffffffffffffffffffffffffffff1661179c611331565b73ffffffffffffffffffffffffffffffffffffffff16146117f2576040517f08c379a00000000000000000000000000000000000000000000000000000000081526004016117e990614088565b60405180910390fd5b6117fc600a6129ef565b6000611808600a612a05565b90506118143382612a13565b61181e8186612bec565b83600b600083815260200190815260200160002060006101000a81548173ffffffffffffffffffffffffffffffffffffffff021916908373ffffffffffffffffffffffffffffffffffffffff16021790555082600c600083815260200190815260200160002060006101000a81548173ffffffffffffffffffffffffffffffffffffffff021916908373ffffffffffffffffffffffffffffffffffffffff160217905550809150509392505050565b6118de6118d8612274565b83612335565b61191d576040517f08c379a000000000000000000000000000000000000000000000000000000000815260040161191490613c0a565b60405180910390fd5b61192984848484612c60565b50505050565b61193881612208565b611977576040517f08c379a000000000000000000000000000000000000000000000000000000000815260040161196e906140f4565b60405180910390fd5b600073ffffffffffffffffffffffffffffffffffffffff16600d600083815260200190815260200160002060000160009054906101000a900473ffffffffffffffffffffffffffffffffffffffff1673ffffffffffffffffffffffffffffffffffffffff1603611a1c576040517f08c379a0000000000000000000000000000000000000000000000000000000008152600401611a1390614186565b60405180910390fd5b3373ffffffffffffffffffffffffffffffffffffffff16600d600083815260200190815260200160002060000160009054906101000a900473ffffffffffffffffffffffffffffffffffffffff1673ffffffffffffffffffffffffffffffffffffffff1614611ac0576040517f08c379a0000000000000000000000000000000000000000000000000000000008152600401611ab790614218565b60405180910390fd5b600d6000828152602001908152602001600020600101543414611b18576040517f08c379a0000000000000000000000000000000000000000000000000000000008152600401611b0f90614284565b60405180910390fd5b6001600d600083815260200190815260200160002060020160006101000a81548160ff02191690831515021790555050565b6060611b5582612208565b611b94576040517f08c379a0000000000000000000000000000000000000000000000000000000008152600401611b8b90614316565b60405180910390fd5b6000600660008481526020019081526020016000208054611bb4906139b1565b80601f0160208091040260200160405190810160405280929190818152602001828054611be0906139b1565b8015611c2d5780601f10611c0257610100808354040283529160200191611c2d565b820191906000526020600020905b815481529060010190602001808311611c1057829003601f168201915b505050505090506000611c3e6127a6565b90506000815103611c53578192505050611c96565b600082511115611c88578082604051602001611c70929190613ef4565b60405160208183030381529060405292505050611c96565b611c9184612cbc565b925050505b919050565b611ca3612274565b73ffffffffffffffffffffffffffffffffffffffff16611cc1611331565b73ffffffffffffffffffffffffffffffffffffffff1614611d17576040517f08c379a0000000000000000000000000000000000000000000000000000000008152600401611d0e90614088565b60405180910390fd5b60008160ff1610158015611d2f575060648160ff1611155b611d6e576040517f08c379a0000000000000000000000000000000000000000000000000000000008152600401611d6590614382565b60405180910390fd5b80600e60006101000a81548160ff021916908360ff16021790555050565b611d9581612208565b611dd4576040517f08c379a0000000000000000000000000000000000000000000000000000000008152600401611dcb906140f4565b60405180910390fd5b600073ffffffffffffffffffffffffffffffffffffffff16600d600083815260200190815260200160002060000160009054906101000a900473ffffffffffffffffffffffffffffffffffffffff1673ffffffffffffffffffffffffffffffffffffffff1603611e79576040517f08c379a0000000000000000000000000000000000000000000000000000000008152600401611e7090614186565b60405180910390fd5b600d600082815260200190815260200160002060020160009054906101000a900460ff16611edc576040517f08c379a0000000000000000000000000000000000000000000000000000000008152600401611ed3906143ee565b60405180910390fd5b611ee581610f53565b73ffffffffffffffffffffffffffffffffffffffff166108fc6064600e60009054906101000a900460ff166064611f1c919061443d565b611f2691906144a0565b60ff16600d600085815260200190815260200160002060010154611f4a91906144d1565b9081150290604051600060405180830381858888f19350505050158015611f75573d6000803e3d6000fd5b50611fb733600d600084815260200190815260200160002060000160009054906101000a900473ffffffffffffffffffffffffffffffffffffffff16836109cf565b600d6000828152602001908152602001600020600080820160006101000a81549073ffffffffffffffffffffffffffffffffffffffff021916905560018201600090556002820160006101000a81549060ff0219169055505050565b6000600560008473ffffffffffffffffffffffffffffffffffffffff1673ffffffffffffffffffffffffffffffffffffffff16815260200190815260200160002060008373ffffffffffffffffffffffffffffffffffffffff1673ffffffffffffffffffffffffffffffffffffffff16815260200190815260200160002060009054906101000a900460ff16905092915050565b6120af612274565b73ffffffffffffffffffffffffffffffffffffffff166120cd611331565b73ffffffffffffffffffffffffffffffffffffffff1614612123576040517f08c379a000000000000000000000000000000000000000000000000000000000815260040161211a90614088565b60405180910390fd5b600073ffffffffffffffffffffffffffffffffffffffff168173ffffffffffffffffffffffffffffffffffffffff1603612192576040517f08c379a00000000000000000000000000000000000000000000000000000000081526004016121899061459d565b60405180910390fd5b61219b816127bd565b50565b60007f01ffc9a7000000000000000000000000000000000000000000000000000000007bffffffffffffffffffffffffffffffffffffffffffffffffffffffff1916827bffffffffffffffffffffffffffffffffffffffffffffffffffffffff1916149050919050565b60008073ffffffffffffffffffffffffffffffffffffffff166002600084815260200190815260200160002060009054906101000a900473ffffffffffffffffffffffffffffffffffffffff1673ffffffffffffffffffffffffffffffffffffffff1614159050919050565b600033905090565b816004600083815260200190815260200160002060006101000a81548173ffffffffffffffffffffffffffffffffffffffff021916908373ffffffffffffffffffffffffffffffffffffffff160217905550808273ffffffffffffffffffffffffffffffffffffffff166122ef83610f53565b73ffffffffffffffffffffffffffffffffffffffff167f8c5be1e5ebec7d5bd14f71427d1e84f3dd0314c0f7b2291e5b200ac8c7c3b92560405160405180910390a45050565b600061234082612208565b61237f576040517f08c379a00000000000000000000000000000000000000000000000000000000081526004016123769061462f565b60405180910390fd5b600061238a83610f53565b90508073ffffffffffffffffffffffffffffffffffffffff168473ffffffffffffffffffffffffffffffffffffffff1614806123cc57506123cb8185612013565b5b8061240a57508373ffffffffffffffffffffffffffffffffffffffff166123f284610833565b73ffffffffffffffffffffffffffffffffffffffff16145b91505092915050565b8273ffffffffffffffffffffffffffffffffffffffff1661243382610f53565b73ffffffffffffffffffffffffffffffffffffffff1614612489576040517f08c379a0000000000000000000000000000000000000000000000000000000008152600401612480906146c1565b60405180910390fd5b600073ffffffffffffffffffffffffffffffffffffffff168273ffffffffffffffffffffffffffffffffffffffff16036124f8576040517f08c379a00000000000000000000000000000000000000000000000000000000081526004016124ef90614753565b60405180910390fd5b612503838383612d63565b61250e60008261227c565b6001600360008573ffffffffffffffffffffffffffffffffffffffff1673ffffffffffffffffffffffffffffffffffffffff168152602001908152602001600020600082825461255e9190614773565b925050819055506001600360008473ffffffffffffffffffffffffffffffffffffffff1673ffffffffffffffffffffffffffffffffffffffff16815260200190815260200160002060008282546125b591906147a7565b92505081905550816002600083815260200190815260200160002060006101000a81548173ffffffffffffffffffffffffffffffffffffffff021916908373ffffffffffffffffffffffffffffffffffffffff160217905550808273ffffffffffffffffffffffffffffffffffffffff168473ffffffffffffffffffffffffffffffffffffffff167fddf252ad1be2c89b69c2b068fc378daa952ba7f163c4a11628f55a4df523b3ef60405160405180910390a4612674838383612d68565b505050565b61268283612208565b6126c1576040517f08c379a00000000000000000000000000000000000000000000000000000000081526004016126b89061486f565b60405180910390fd5b60008160ff1614806126d6575060018160ff16145b806126e4575060028160ff16145b612723576040517f08c379a000000000000000000000000000000000000000000000000000000000815260040161271a90613e98565b60405180910390fd5b60008160ff1603612739576127388383612bec565b5b60018160ff160361276d578160076000858152602001908152602001600020908051906020019061276b929190613077565b505b60028160ff16036127a1578160086000858152602001908152602001600020908051906020019061279f929190613077565b505b505050565b606060405180602001604052806000815250905090565b6000600960009054906101000a900473ffffffffffffffffffffffffffffffffffffffff16905081600960006101000a81548173ffffffffffffffffffffffffffffffffffffffff021916908373ffffffffffffffffffffffffffffffffffffffff1602179055508173ffffffffffffffffffffffffffffffffffffffff168173ffffffffffffffffffffffffffffffffffffffff167f8be0079c531659141344cd1fd0a4f28419497f9722a3daafe3b4186f6b6457e060405160405180910390a35050565b8173ffffffffffffffffffffffffffffffffffffffff168373ffffffffffffffffffffffffffffffffffffffff16036128f1576040517f08c379a00000000000000000000000000000000000000000000000000000000081526004016128e8906148db565b60405180910390fd5b80600560008573ffffffffffffffffffffffffffffffffffffffff1673ffffffffffffffffffffffffffffffffffffffff16815260200190815260200160002060008473ffffffffffffffffffffffffffffffffffffffff1673ffffffffffffffffffffffffffffffffffffffff16815260200190815260200160002060006101000a81548160ff0219169083151502179055508173ffffffffffffffffffffffffffffffffffffffff168373ffffffffffffffffffffffffffffffffffffffff167f17307eab39ab6107e8899845ad3d59bd9653f200f220920489ca2b5937696c31836040516129e291906131ce565b60405180910390a3505050565b6001816000016000828254019250508190555050565b600081600001549050919050565b600073ffffffffffffffffffffffffffffffffffffffff168273ffffffffffffffffffffffffffffffffffffffff1603612a82576040517f08c379a0000000000000000000000000000000000000000000000000000000008152600401612a7990614947565b60405180910390fd5b612a8b81612208565b15612acb576040517f08c379a0000000000000000000000000000000000000000000000000000000008152600401612ac2906149b3565b60405180910390fd5b612ad760008383612d63565b6001600360008473ffffffffffffffffffffffffffffffffffffffff1673ffffffffffffffffffffffffffffffffffffffff1681526020019081526020016000206000828254612b2791906147a7565b92505081905550816002600083815260200190815260200160002060006101000a81548173ffffffffffffffffffffffffffffffffffffffff021916908373ffffffffffffffffffffffffffffffffffffffff160217905550808273ffffffffffffffffffffffffffffffffffffffff16600073ffffffffffffffffffffffffffffffffffffffff167fddf252ad1be2c89b69c2b068fc378daa952ba7f163c4a11628f55a4df523b3ef60405160405180910390a4612be860008383612d68565b5050565b612bf582612208565b612c34576040517f08c379a0000000000000000000000000000000000000000000000000000000008152600401612c2b9061486f565b60405180910390fd5b80600660008481526020019081526020016000209080519060200190612c5b929190613077565b505050565b612c6b848484612413565b612c7784848484612d6d565b612cb6576040517f08c379a0000000000000000000000000000000000000000000000000000000008152600401612cad90614a45565b60405180910390fd5b50505050565b6060612cc782612208565b612d06576040517f08c379a0000000000000000000000000000000000000000000000000000000008152600401612cfd90614ad7565b60405180910390fd5b6000612d106127a6565b90506000815111612d305760405180602001604052806000815250612d5b565b80612d3a84612ef4565b604051602001612d4b929190613ef4565b6040516020818303038152906040525b915050919050565b505050565b505050565b6000612d8e8473ffffffffffffffffffffffffffffffffffffffff16613054565b15612ee7578373ffffffffffffffffffffffffffffffffffffffff1663150b7a02612db7612274565b8786866040518563ffffffff1660e01b8152600401612dd99493929190614b4c565b6020604051808303816000875af1925050508015612e1557506040513d601f19601f82011682018060405250810190612e129190614bad565b60015b612e97573d8060008114612e45576040519150601f19603f3d011682016040523d82523d6000602084013e612e4a565b606091505b506000815103612e8f576040517f08c379a0000000000000000000000000000000000000000000000000000000008152600401612e8690614a45565b60405180910390fd5b805181602001fd5b63150b7a0260e01b7bffffffffffffffffffffffffffffffffffffffffffffffffffffffff1916817bffffffffffffffffffffffffffffffffffffffffffffffffffffffff191614915050612eec565b600190505b949350505050565b606060008203612f3b576040518060400160405280600181526020017f3000000000000000000000000000000000000000000000000000000000000000815250905061304f565b600082905060005b60008214612f6d578080612f5690614bda565b915050600a82612f669190614c22565b9150612f43565b60008167ffffffffffffffff811115612f8957612f8861347f565b5b6040519080825280601f01601f191660200182016040528015612fbb5781602001600182028036833780820191505090505b5090505b6000851461304857600182612fd49190614773565b9150600a85612fe39190614c53565b6030612fef91906147a7565b60f81b81838151811061300557613004614c84565b5b60200101907effffffffffffffffffffffffffffffffffffffffffffffffffffffffffffff1916908160001a905350600a856130419190614c22565b9450612fbf565b8093505050505b919050565b6000808273ffffffffffffffffffffffffffffffffffffffff163b119050919050565b828054613083906139b1565b90600052602060002090601f0160209004810192826130a557600085556130ec565b82601f106130be57805160ff19168380011785556130ec565b828001600101855582156130ec579182015b828111156130eb5782518255916020019190600101906130d0565b5b5090506130f991906130fd565b5090565b5b808211156131165760008160009055506001016130fe565b5090565b6000604051905090565b600080fd5b600080fd5b60007fffffffff0000000000000000000000000000000000000000000000000000000082169050919050565b6131638161312e565b811461316e57600080fd5b50565b6000813590506131808161315a565b92915050565b60006020828403121561319c5761319b613124565b5b60006131aa84828501613171565b91505092915050565b60008115159050919050565b6131c8816131b3565b82525050565b60006020820190506131e360008301846131bf565b92915050565b600081519050919050565b600082825260208201905092915050565b60005b83811015613223578082015181840152602081019050613208565b83811115613232576000848401525b50505050565b6000601f19601f8301169050919050565b6000613254826131e9565b61325e81856131f4565b935061326e818560208601613205565b61327781613238565b840191505092915050565b6000602082019050818103600083015261329c8184613249565b905092915050565b6000819050919050565b6132b7816132a4565b81146132c257600080fd5b50565b6000813590506132d4816132ae565b92915050565b6000602082840312156132f0576132ef613124565b5b60006132fe848285016132c5565b91505092915050565b600073ffffffffffffffffffffffffffffffffffffffff82169050919050565b600061333282613307565b9050919050565b61334281613327565b82525050565b600060208201905061335d6000830184613339565b92915050565b61336c81613327565b811461337757600080fd5b50565b60008135905061338981613363565b92915050565b600080604083850312156133a6576133a5613124565b5b60006133b48582860161337a565b92505060206133c5858286016132c5565b9150509250929050565b6000806000606084860312156133e8576133e7613124565b5b60006133f68682870161337a565b93505060206134078682870161337a565b9250506040613418868287016132c5565b9150509250925092565b60008060006060848603121561343b5761343a613124565b5b6000613449868287016132c5565b935050602061345a8682870161337a565b925050604061346b868287016132c5565b9150509250925092565b600080fd5b600080fd5b7f4e487b7100000000000000000000000000000000000000000000000000000000600052604160045260246000fd5b6134b782613238565b810181811067ffffffffffffffff821117156134d6576134d561347f565b5b80604052505050565b60006134e961311a565b90506134f582826134ae565b919050565b600067ffffffffffffffff8211156135155761351461347f565b5b61351e82613238565b9050602081019050919050565b82818337600083830152505050565b600061354d613548846134fa565b6134df565b9050828152602081018484840111156135695761356861347a565b5b61357484828561352b565b509392505050565b600082601f83011261359157613590613475565b5b81356135a184826020860161353a565b91505092915050565b600080604083850312156135c1576135c0613124565b5b60006135cf858286016132c5565b925050602083013567ffffffffffffffff8111156135f0576135ef613129565b5b6135fc8582860161357c565b9150509250929050565b600060ff82169050919050565b61361c81613606565b811461362757600080fd5b50565b60008135905061363981613613565b92915050565b6000806040838503121561365657613655613124565b5b6000613664858286016132c5565b92505060206136758582860161362a565b9150509250929050565b60006020828403121561369557613694613124565b5b60006136a38482850161337a565b91505092915050565b6136b5816132a4565b82525050565b60006020820190506136d060008301846136ac565b92915050565b600080604083850312156136ed576136ec613124565b5b60006136fb858286016132c5565b925050602061370c8582860161337a565b9150509250929050565b61371f816131b3565b811461372a57600080fd5b50565b60008135905061373c81613716565b92915050565b6000806040838503121561375957613758613124565b5b60006137678582860161337a565b92505060206137788582860161372d565b9150509250929050565b60008060006060848603121561379b5761379a613124565b5b600084013567ffffffffffffffff8111156137b9576137b8613129565b5b6137c58682870161357c565b93505060206137d68682870161337a565b92505060406137e78682870161337a565b9150509250925092565b600067ffffffffffffffff82111561380c5761380b61347f565b5b61381582613238565b9050602081019050919050565b6000613835613830846137f1565b6134df565b9050828152602081018484840111156138515761385061347a565b5b61385c84828561352b565b509392505050565b600082601f83011261387957613878613475565b5b8135613889848260208601613822565b91505092915050565b600080600080608085870312156138ac576138ab613124565b5b60006138ba8782880161337a565b94505060206138cb8782880161337a565b93505060406138dc878288016132c5565b925050606085013567ffffffffffffffff8111156138fd576138fc613129565b5b61390987828801613864565b91505092959194509250565b60006020828403121561392b5761392a613124565b5b60006139398482850161362a565b91505092915050565b6000806040838503121561395957613958613124565b5b60006139678582860161337a565b92505060206139788582860161337a565b9150509250929050565b7f4e487b7100000000000000000000000000000000000000000000000000000000600052602260045260246000fd5b600060028204905060018216806139c957607f821691505b6020821081036139dc576139db613982565b5b50919050565b7f4552433732313a20617070726f76656420717565727920666f72206e6f6e657860008201527f697374656e7420746f6b656e0000000000000000000000000000000000000000602082015250565b6000613a3e602c836131f4565b9150613a49826139e2565b604082019050919050565b60006020820190508181036000830152613a6d81613a31565b9050919050565b7f4552433732313a20617070726f76616c20746f2063757272656e74206f776e6560008201527f7200000000000000000000000000000000000000000000000000000000000000602082015250565b6000613ad06021836131f4565b9150613adb82613a74565b604082019050919050565b60006020820190508181036000830152613aff81613ac3565b9050919050565b7f4552433732313a20617070726f76652063616c6c6572206973206e6f74206f7760008201527f6e6572206e6f7220617070726f76656420666f7220616c6c0000000000000000602082015250565b6000613b626038836131f4565b9150613b6d82613b06565b604082019050919050565b60006020820190508181036000830152613b9181613b55565b9050919050565b7f4552433732313a207472616e736665722063616c6c6572206973206e6f74206f60008201527f776e6572206e6f7220617070726f766564000000000000000000000000000000602082015250565b6000613bf46031836131f4565b9150613bff82613b98565b604082019050919050565b60006020820190508181036000830152613c2381613be7565b9050919050565b7f5472616e66657220696e74656e74696f6e20666f72206e6f6e6578697374656e60008201527f7420746f6b656e00000000000000000000000000000000000000000000000000602082015250565b6000613c866027836131f4565b9150613c9182613c2a565b604082019050919050565b60006020820190508181036000830152613cb581613c79565b9050919050565b7f4e6f7420746865206f776e6572206f6620746865206361720000000000000000600082015250565b6000613cf26018836131f4565b9150613cfd82613cbc565b602082019050919050565b60006020820190508181036000830152613d2181613ce5565b9050919050565b7f55524920717565727920666f72206e6f6e6578697374656e7420746f6b656e00600082015250565b6000613d5e601f836131f4565b9150613d6982613d28565b602082019050919050565b60006020820190508181036000830152613d8d81613d51565b9050919050565b7f45524337323155524953746f726167655f657874656e6465643a20555249207160008201527f7565727920666f72206e6f6e6578697374656e7420746f6b656e000000000000602082015250565b6000613df0603a836131f4565b9150613dfb82613d94565b604082019050919050565b60006020820190508181036000830152613e1f81613de3565b9050919050565b7f45524337323155524953746f726167655f657874656e6465643a20496e76616c60008201527f6964205552492054797065000000000000000000000000000000000000000000602082015250565b6000613e82602b836131f4565b9150613e8d82613e26565b604082019050919050565b60006020820190508181036000830152613eb181613e75565b9050919050565b600081905092915050565b6000613ece826131e9565b613ed88185613eb8565b9350613ee8818560208601613205565b80840191505092915050565b6000613f008285613ec3565b9150613f0c8284613ec3565b91508190509392505050565b7f4552433732313a206f776e657220717565727920666f72206e6f6e657869737460008201527f656e7420746f6b656e0000000000000000000000000000000000000000000000602082015250565b6000613f746029836131f4565b9150613f7f82613f18565b604082019050919050565b60006020820190508181036000830152613fa381613f67565b9050919050565b7f4552433732313a2062616c616e636520717565727920666f7220746865207a6560008201527f726f206164647265737300000000000000000000000000000000000000000000602082015250565b6000614006602a836131f4565b915061401182613faa565b604082019050919050565b6000602082019050818103600083015261403581613ff9565b9050919050565b7f4f776e61626c653a2063616c6c6572206973206e6f7420746865206f776e6572600082015250565b60006140726020836131f4565b915061407d8261403c565b602082019050919050565b600060208201905081810360008301526140a181614065565b9050919050565b7f4e6f6e6578697374656e7420746f6b656e000000000000000000000000000000600082015250565b60006140de6011836131f4565b91506140e9826140a8565b602082019050919050565b6000602082019050818103600083015261410d816140d1565b9050919050565b7f4e6f207472616e66657220696e74656e74696f6e20666f72207468697320636160008201527f7200000000000000000000000000000000000000000000000000000000000000602082015250565b60006141706021836131f4565b915061417b82614114565b604082019050919050565b6000602082019050818103600083015261419f81614163565b9050919050565b7f4e6f207472616e66657220696e74656e74696f6e20666f72207468652073656e60008201527f6465720000000000000000000000000000000000000000000000000000000000602082015250565b60006142026023836131f4565b915061420d826141a6565b604082019050919050565b60006020820190508181036000830152614231816141f5565b9050919050565b7f4e6f7420746865206163636f7264656420707269636500000000000000000000600082015250565b600061426e6016836131f4565b915061427982614238565b602082019050919050565b6000602082019050818103600083015261429d81614261565b9050919050565b7f45524337323155524953746f726167653a2055524920717565727920666f722060008201527f6e6f6e6578697374656e7420746f6b656e000000000000000000000000000000602082015250565b60006143006031836131f4565b915061430b826142a4565b604082019050919050565b6000602082019050818103600083015261432f816142f3565b9050919050565b7f496e76616964206665652076616c756500000000000000000000000000000000600082015250565b600061436c6010836131f4565b915061437782614336565b602082019050919050565b6000602082019050818103600083015261439b8161435f565b9050919050565b7f4e6f742070616964210000000000000000000000000000000000000000000000600082015250565b60006143d86009836131f4565b91506143e3826143a2565b602082019050919050565b60006020820190508181036000830152614407816143cb565b9050919050565b7f4e487b7100000000000000000000000000000000000000000000000000000000600052601160045260246000fd5b600061444882613606565b915061445383613606565b9250828210156144665761446561440e565b5b828203905092915050565b7f4e487b7100000000000000000000000000000000000000000000000000000000600052601260045260246000fd5b60006144ab82613606565b91506144b683613606565b9250826144c6576144c5614471565b5b828204905092915050565b60006144dc826132a4565b91506144e7836132a4565b9250817fffffffffffffffffffffffffffffffffffffffffffffffffffffffffffffffff04831182151516156145205761451f61440e565b5b828202905092915050565b7f4f776e61626c653a206e6577206f776e657220697320746865207a65726f206160008201527f6464726573730000000000000000000000000000000000000000000000000000602082015250565b60006145876026836131f4565b91506145928261452b565b604082019050919050565b600060208201905081810360008301526145b68161457a565b9050919050565b7f4552433732313a206f70657261746f7220717565727920666f72206e6f6e657860008201527f697374656e7420746f6b656e0000000000000000000000000000000000000000602082015250565b6000614619602c836131f4565b9150614624826145bd565b604082019050919050565b600060208201905081810360008301526146488161460c565b9050919050565b7f4552433732313a207472616e736665722066726f6d20696e636f72726563742060008201527f6f776e6572000000000000000000000000000000000000000000000000000000602082015250565b60006146ab6025836131f4565b91506146b68261464f565b604082019050919050565b600060208201905081810360008301526146da8161469e565b9050919050565b7f4552433732313a207472616e7366657220746f20746865207a65726f2061646460008201527f7265737300000000000000000000000000000000000000000000000000000000602082015250565b600061473d6024836131f4565b9150614748826146e1565b604082019050919050565b6000602082019050818103600083015261476c81614730565b9050919050565b600061477e826132a4565b9150614789836132a4565b92508282101561479c5761479b61440e565b5b828203905092915050565b60006147b2826132a4565b91506147bd836132a4565b9250827fffffffffffffffffffffffffffffffffffffffffffffffffffffffffffffffff038211156147f2576147f161440e565b5b828201905092915050565b7f45524337323155524953746f726167653a2055524920736574206f66206e6f6e60008201527f6578697374656e7420746f6b656e000000000000000000000000000000000000602082015250565b6000614859602e836131f4565b9150614864826147fd565b604082019050919050565b600060208201905081810360008301526148888161484c565b9050919050565b7f4552433732313a20617070726f766520746f2063616c6c657200000000000000600082015250565b60006148c56019836131f4565b91506148d08261488f565b602082019050919050565b600060208201905081810360008301526148f4816148b8565b9050919050565b7f4552433732313a206d696e7420746f20746865207a65726f2061646472657373600082015250565b60006149316020836131f4565b915061493c826148fb565b602082019050919050565b6000602082019050818103600083015261496081614924565b9050919050565b7f4552433732313a20746f6b656e20616c7265616479206d696e74656400000000600082015250565b600061499d601c836131f4565b91506149a882614967565b602082019050919050565b600060208201905081810360008301526149cc81614990565b9050919050565b7f4552433732313a207472616e7366657220746f206e6f6e20455243373231526560008201527f63656976657220696d706c656d656e7465720000000000000000000000000000602082015250565b6000614a2f6032836131f4565b9150614a3a826149d3565b604082019050919050565b60006020820190508181036000830152614a5e81614a22565b9050919050565b7f4552433732314d657461646174613a2055524920717565727920666f72206e6f60008201527f6e6578697374656e7420746f6b656e0000000000000000000000000000000000602082015250565b6000614ac1602f836131f4565b9150614acc82614a65565b604082019050919050565b60006020820190508181036000830152614af081614ab4565b9050919050565b600081519050919050565b600082825260208201905092915050565b6000614b1e82614af7565b614b288185614b02565b9350614b38818560208601613205565b614b4181613238565b840191505092915050565b6000608082019050614b616000830187613339565b614b6e6020830186613339565b614b7b60408301856136ac565b8181036060830152614b8d8184614b13565b905095945050505050565b600081519050614ba78161315a565b92915050565b600060208284031215614bc357614bc2613124565b5b6000614bd184828501614b98565b91505092915050565b6000614be5826132a4565b91507fffffffffffffffffffffffffffffffffffffffffffffffffffffffffffffffff8203614c1757614c1661440e565b5b600182019050919050565b6000614c2d826132a4565b9150614c38836132a4565b925082614c4857614c47614471565b5b828204905092915050565b6000614c5e826132a4565b9150614c69836132a4565b925082614c7957614c78614471565b5b828206905092915050565b7f4e487b7100000000000000000000000000000000000000000000000000000000600052603260045260246000fdfea26469706673582212206447af7f32ce2d0f964024803fd6b16d26c4f526e2394a05e2d7ada91aa4a71264736f6c634300080e0033",
  "immutableReferences": {},
  "source": "\n// SPDX-License-Identifier: MIT\npragma solidity ^0.8.14;\n\nimport \"@openzeppelin/contracts/token/ERC721/ERC721.sol\";\nimport \"@openzeppelin/contracts/utils/Counters.sol\";\nimport \"@openzeppelin/contracts/access/Ownable.sol\";\nimport \"./ERC721URIStorage_extended.sol\";\n\ncontract carRegistrationContract is ERC721URIStorage_extended,Ownable{\n  using Counters for Counters.Counter;\n\n  Counters.Counter private tokenId;\n  mapping(uint256 => address) private _allowedManteninance;\n  mapping(uint256 => address) private _allowedIncidents;\n\n  struct TransferStruct{\n    address buyer;\n    uint256 price;\n    bool paid;\n  }\n\n  mapping(uint256 => TransferStruct) private _tranferIntentions;\n\n  uint8 fee;\n\n  constructor(uint8 _fee) ERC721(\"AutomotiveRegistrationAgency\", \"ARA\"){\n    fee = _fee;\n  }\n\n  function mintNFT(string memory _tokenURI, address _manteinanceAgency, address _incidentAgency) public onlyOwner returns (uint256){\n    tokenId.increment();\n    uint256 newId = tokenId.current();\n    _mint(msg.sender, newId);\n    _setTokenURI(newId, _tokenURI);\n    _allowedManteninance[newId] = _manteinanceAgency;\n    _allowedIncidents[newId] = _incidentAgency;\n    return newId;\n  }\n\n  function setAllowedManteinance(uint256 _tokenId, address _allowed) external onlyOwner{\n      require(_exists(_tokenId), \"URI query for nonexistent token\");\n      _allowedManteninance[_tokenId] = _allowed;\n    }\n\n  function setAllowedIncidents(uint256 _tokenId, address _allowed) external onlyOwner{\n      require(_exists(_tokenId), \"URI query for nonexistent token\");\n      _allowedIncidents[_tokenId] = _allowed;\n    }\n\n    function setFee(uint8 _newFee) external onlyOwner{\n      require (_newFee >= 0 && _newFee <= 100, \"Invaid fee value\");\n      fee = _newFee;\n    }\n\n  //I defined 3 types of URIs and I assign an identification number for each.\n  //I dont like \"maggic numbers\" but as far as I know there is not a #define macro\n  //in solidity and, on the other hand, to declare const global variable\n  //would implicate gas consumition.\n  //URIType 0 -> tokenURI\n  //URIType 1 -> _tokenURI_maintenances\n  //URIType 2 -> _tokenURI_incidents\n\n\n  function setURIManteinance(uint256 _tokenId, string memory _tokenURI) external {\n    require(_exists(_tokenId), \"URI query for nonexistent token\");\n    require(msg.sender == _allowedManteninance[_tokenId] || msg.sender == owner());\n    _setTokenURI(_tokenId, _tokenURI, 1);\n\n  }\n\n  function setURIIncidents(uint256 _tokenId, string memory _tokenURI) external {\n    require(_exists(_tokenId), \"URI query for nonexistent token\");\n    require(msg.sender == _allowedIncidents[_tokenId] || msg.sender == owner());\n    _setTokenURI(_tokenId, _tokenURI, 2);\n  }\n\n  function setURI(uint256 _tokenId, string memory _tokenURI) external onlyOwner{\n    require(_exists(_tokenId), \"URI query for nonexistent token\");\n    _setTokenURI(_tokenId, _tokenURI, 0);\n  }\n\n\n//TRANSFER INTENTION FUNTIONS\n\n  function tranferIntention(uint256 _tokenId, address _seller, uint256 _price) external{\n    require(_exists(_tokenId), \"Tranfer intention for nonexistent token\");\n    require(ownerOf(_tokenId) == msg.sender, \"Not the owner of the car\");\n\n    _tranferIntentions[_tokenId] = TransferStruct(_seller,_price, false);\n  }\n\n  function deleteTranferIntention(uint256 _tokenId) external{\n    require(_exists(_tokenId), \"Tranfer intention for nonexistent token\");\n    require( (msg.sender == owner()) || (ownerOf(_tokenId) == msg.sender), \"Not the owner of the car\");\n\n    delete _tranferIntentions[_tokenId];\n  }\n\n  function payTranfer(uint256 _tokenId) external payable{\n    require(_exists(_tokenId), \"Nonexistent token\");\n    require(_tranferIntentions[_tokenId].buyer != address(0), \"No tranfer intention for this car\");\n    require(_tranferIntentions[_tokenId].buyer == msg.sender, \"No tranfer intention for the sender\");\n    require(msg.value == _tranferIntentions[_tokenId].price, \"Not the accorded price\");\n\n    _tranferIntentions[_tokenId].paid = true;\n\n\n\n  }\n\n  function carTransfer(uint256 _tokenId) external{\n    require(_exists(_tokenId), \"Nonexistent token\");\n    require(_tranferIntentions[_tokenId].buyer != address(0), \"No tranfer intention for this car\");\n    require(_tranferIntentions[_tokenId].paid, \"Not paid!\");\n\n    payable(ownerOf(_tokenId)).transfer(_tranferIntentions[_tokenId].price * ((100 - fee) / 100));\n    transferFrom(msg.sender, _tranferIntentions[_tokenId].buyer, _tokenId);\n\n    delete _tranferIntentions[_tokenId];\n  }\n\n\n}\n",
  "sourcePath": "/home/julian/education/carRegistration/contracts/carRegistrationContract.sol",
  "compiler": {
    "name": "solc",
    "version": "0.8.14+commit.80d49f37.Emscripten.clang"
  },
  "schemaVersion": "3.4.7",
  "updatedAt": "2022-06-14T14:06:23.905Z",
  "devdoc": {
    "kind": "dev",
    "methods": {
      "approve(address,uint256)": {
        "details": "See {IERC721-approve}."
      },
      "balanceOf(address)": {
        "details": "See {IERC721-balanceOf}."
      },
      "getApproved(uint256)": {
        "details": "See {IERC721-getApproved}."
      },
      "isApprovedForAll(address,address)": {
        "details": "See {IERC721-isApprovedForAll}."
      },
      "name()": {
        "details": "See {IERC721Metadata-name}."
      },
      "owner()": {
        "details": "Returns the address of the current owner."
      },
      "ownerOf(uint256)": {
        "details": "See {IERC721-ownerOf}."
      },
      "renounceOwnership()": {
        "details": "Leaves the contract without owner. It will not be possible to call `onlyOwner` functions anymore. Can only be called by the current owner. NOTE: Renouncing ownership will leave the contract without an owner, thereby removing any functionality that is only available to the owner."
      },
      "safeTransferFrom(address,address,uint256)": {
        "details": "See {IERC721-safeTransferFrom}."
      },
      "safeTransferFrom(address,address,uint256,bytes)": {
        "details": "See {IERC721-safeTransferFrom}."
      },
      "setApprovalForAll(address,bool)": {
        "details": "See {IERC721-setApprovalForAll}."
      },
      "supportsInterface(bytes4)": {
        "details": "See {IERC165-supportsInterface}."
      },
      "symbol()": {
        "details": "See {IERC721Metadata-symbol}."
      },
      "tokenURI(uint256)": {
        "details": "See {IERC721Metadata-tokenURI}."
      },
      "tokenURI(uint256,uint8)": {
        "details": "See {IERC721Metadata-tokenURI}."
      },
      "transferFrom(address,address,uint256)": {
        "details": "See {IERC721-transferFrom}."
      },
      "transferOwnership(address)": {
        "details": "Transfers ownership of the contract to a new account (`newOwner`). Can only be called by the current owner."
      }
    },
    "version": 1
  },
  "userdoc": {
    "kind": "user",
    "methods": {},
    "version": 1
  }
}