{
  "contractName": "carRegistrationContract",
  "abi": [
    {
      "inputs": [
        {
          "internalType": "uint8",
          "name": "_fee",
          "type": "uint8"
        }
      ],
      "stateMutability": "nonpayable",
      "type": "constructor"
    },
    {
      "anonymous": false,
      "inputs": [
        {
          "indexed": true,
          "internalType": "address",
          "name": "owner",
          "type": "address"
        },
        {
          "indexed": true,
          "internalType": "address",
          "name": "approved",
          "type": "address"
        },
        {
          "indexed": true,
          "internalType": "uint256",
          "name": "tokenId",
          "type": "uint256"
        }
      ],
      "name": "Approval",
      "type": "event"
    },
    {
      "anonymous": false,
      "inputs": [
        {
          "indexed": true,
          "internalType": "address",
          "name": "owner",
          "type": "address"
        },
        {
          "indexed": true,
          "internalType": "address",
          "name": "operator",
          "type": "address"
        },
        {
          "indexed": false,
          "internalType": "bool",
          "name": "approved",
          "type": "bool"
        }
      ],
      "name": "ApprovalForAll",
      "type": "event"
    },
    {
      "anonymous": false,
      "inputs": [
        {
          "indexed": true,
          "internalType": "address",
          "name": "previousOwner",
          "type": "address"
        },
        {
          "indexed": true,
          "internalType": "address",
          "name": "newOwner",
          "type": "address"
        }
      ],
      "name": "OwnershipTransferred",
      "type": "event"
    },
    {
      "anonymous": false,
      "inputs": [
        {
          "indexed": true,
          "internalType": "address",
          "name": "from",
          "type": "address"
        },
        {
          "indexed": true,
          "internalType": "address",
          "name": "to",
          "type": "address"
        },
        {
          "indexed": true,
          "internalType": "uint256",
          "name": "tokenId",
          "type": "uint256"
        }
      ],
      "name": "Transfer",
      "type": "event"
    },
    {
      "inputs": [
        {
          "internalType": "uint256",
          "name": "",
          "type": "uint256"
        }
      ],
      "name": "_allowedManteninance",
      "outputs": [
        {
          "internalType": "address",
          "name": "",
          "type": "address"
        }
      ],
      "stateMutability": "view",
      "type": "function",
      "constant": true
    },
    {
      "inputs": [
        {
          "internalType": "uint256",
          "name": "",
          "type": "uint256"
        }
      ],
      "name": "_tokenURI_maintenances",
      "outputs": [
        {
          "internalType": "string",
          "name": "",
          "type": "string"
        }
      ],
      "stateMutability": "view",
      "type": "function",
      "constant": true
    },
    {
      "inputs": [
        {
          "internalType": "uint256",
          "name": "",
          "type": "uint256"
        }
      ],
      "name": "_tranferIntentions",
      "outputs": [
        {
          "internalType": "address",
          "name": "buyer",
          "type": "address"
        },
        {
          "internalType": "uint256",
          "name": "price",
          "type": "uint256"
        },
        {
          "internalType": "bool",
          "name": "paid",
          "type": "bool"
        }
      ],
      "stateMutability": "view",
      "type": "function",
      "constant": true
    },
    {
      "inputs": [
        {
          "internalType": "address",
          "name": "to",
          "type": "address"
        },
        {
          "internalType": "uint256",
          "name": "tokenId",
          "type": "uint256"
        }
      ],
      "name": "approve",
      "outputs": [],
      "stateMutability": "nonpayable",
      "type": "function"
    },
    {
      "inputs": [
        {
          "internalType": "address",
          "name": "owner",
          "type": "address"
        }
      ],
      "name": "balanceOf",
      "outputs": [
        {
          "internalType": "uint256",
          "name": "",
          "type": "uint256"
        }
      ],
      "stateMutability": "view",
      "type": "function",
      "constant": true
    },
    {
      "inputs": [],
      "name": "fee",
      "outputs": [
        {
          "internalType": "uint8",
          "name": "",
          "type": "uint8"
        }
      ],
      "stateMutability": "view",
      "type": "function",
      "constant": true
    },
    {
      "inputs": [
        {
          "internalType": "uint256",
          "name": "tokenId",
          "type": "uint256"
        }
      ],
      "name": "getApproved",
      "outputs": [
        {
          "internalType": "address",
          "name": "",
          "type": "address"
        }
      ],
      "stateMutability": "view",
      "type": "function",
      "constant": true
    },
    {
      "inputs": [
        {
          "internalType": "address",
          "name": "owner",
          "type": "address"
        },
        {
          "internalType": "address",
          "name": "operator",
          "type": "address"
        }
      ],
      "name": "isApprovedForAll",
      "outputs": [
        {
          "internalType": "bool",
          "name": "",
          "type": "bool"
        }
      ],
      "stateMutability": "view",
      "type": "function",
      "constant": true
    },
    {
      "inputs": [],
      "name": "name",
      "outputs": [
        {
          "internalType": "string",
          "name": "",
          "type": "string"
        }
      ],
      "stateMutability": "view",
      "type": "function",
      "constant": true
    },
    {
      "inputs": [],
      "name": "owner",
      "outputs": [
        {
          "internalType": "address",
          "name": "",
          "type": "address"
        }
      ],
      "stateMutability": "view",
      "type": "function",
      "constant": true
    },
    {
      "inputs": [
        {
          "internalType": "uint256",
          "name": "tokenId",
          "type": "uint256"
        }
      ],
      "name": "ownerOf",
      "outputs": [
        {
          "internalType": "address",
          "name": "",
          "type": "address"
        }
      ],
      "stateMutability": "view",
      "type": "function",
      "constant": true
    },
    {
      "inputs": [],
      "name": "renounceOwnership",
      "outputs": [],
      "stateMutability": "nonpayable",
      "type": "function"
    },
    {
      "inputs": [
        {
          "internalType": "address",
          "name": "from",
          "type": "address"
        },
        {
          "internalType": "address",
          "name": "to",
          "type": "address"
        },
        {
          "internalType": "uint256",
          "name": "tokenId",
          "type": "uint256"
        }
      ],
      "name": "safeTransferFrom",
      "outputs": [],
      "stateMutability": "nonpayable",
      "type": "function"
    },
    {
      "inputs": [
        {
          "internalType": "address",
          "name": "from",
          "type": "address"
        },
        {
          "internalType": "address",
          "name": "to",
          "type": "address"
        },
        {
          "internalType": "uint256",
          "name": "tokenId",
          "type": "uint256"
        },
        {
          "internalType": "bytes",
          "name": "_data",
          "type": "bytes"
        }
      ],
      "name": "safeTransferFrom",
      "outputs": [],
      "stateMutability": "nonpayable",
      "type": "function"
    },
    {
      "inputs": [
        {
          "internalType": "address",
          "name": "operator",
          "type": "address"
        },
        {
          "internalType": "bool",
          "name": "approved",
          "type": "bool"
        }
      ],
      "name": "setApprovalForAll",
      "outputs": [],
      "stateMutability": "nonpayable",
      "type": "function"
    },
    {
      "inputs": [
        {
          "internalType": "bytes4",
          "name": "interfaceId",
          "type": "bytes4"
        }
      ],
      "name": "supportsInterface",
      "outputs": [
        {
          "internalType": "bool",
          "name": "",
          "type": "bool"
        }
      ],
      "stateMutability": "view",
      "type": "function",
      "constant": true
    },
    {
      "inputs": [],
      "name": "symbol",
      "outputs": [
        {
          "internalType": "string",
          "name": "",
          "type": "string"
        }
      ],
      "stateMutability": "view",
      "type": "function",
      "constant": true
    },
    {
      "inputs": [
        {
          "internalType": "uint256",
          "name": "tokenId",
          "type": "uint256"
        },
        {
          "internalType": "uint8",
          "name": "URIType",
          "type": "uint8"
        }
      ],
      "name": "tokenURI",
      "outputs": [
        {
          "internalType": "string",
          "name": "",
          "type": "string"
        }
      ],
      "stateMutability": "view",
      "type": "function",
      "constant": true
    },
    {
      "inputs": [
        {
          "internalType": "uint256",
          "name": "tokenId",
          "type": "uint256"
        }
      ],
      "name": "tokenURI",
      "outputs": [
        {
          "internalType": "string",
          "name": "",
          "type": "string"
        }
      ],
      "stateMutability": "view",
      "type": "function",
      "constant": true
    },
    {
      "inputs": [
        {
          "internalType": "address",
          "name": "from",
          "type": "address"
        },
        {
          "internalType": "address",
          "name": "to",
          "type": "address"
        },
        {
          "internalType": "uint256",
          "name": "tokenId",
          "type": "uint256"
        }
      ],
      "name": "transferFrom",
      "outputs": [],
      "stateMutability": "nonpayable",
      "type": "function"
    },
    {
      "inputs": [
        {
          "internalType": "address",
          "name": "newOwner",
          "type": "address"
        }
      ],
      "name": "transferOwnership",
      "outputs": [],
      "stateMutability": "nonpayable",
      "type": "function"
    },
    {
      "inputs": [
        {
          "internalType": "address",
          "name": "_owner",
          "type": "address"
        },
        {
          "internalType": "string",
          "name": "_tokenURI",
          "type": "string"
        },
        {
          "internalType": "address",
          "name": "_manteinanceAgency",
          "type": "address"
        }
      ],
      "name": "mintNFT",
      "outputs": [
        {
          "internalType": "uint256",
          "name": "",
          "type": "uint256"
        }
      ],
      "stateMutability": "nonpayable",
      "type": "function"
    },
    {
      "inputs": [
        {
          "internalType": "uint256",
          "name": "_tokenId",
          "type": "uint256"
        },
        {
          "internalType": "address",
          "name": "_allowed",
          "type": "address"
        }
      ],
      "name": "setAllowedManteinance",
      "outputs": [],
      "stateMutability": "nonpayable",
      "type": "function"
    },
    {
      "inputs": [
        {
          "internalType": "uint8",
          "name": "_newFee",
          "type": "uint8"
        }
      ],
      "name": "setFee",
      "outputs": [],
      "stateMutability": "nonpayable",
      "type": "function"
    },
    {
      "inputs": [
        {
          "internalType": "uint256",
          "name": "_tokenId",
          "type": "uint256"
        },
        {
          "internalType": "string",
          "name": "_tokenURI",
          "type": "string"
        }
      ],
      "name": "setURIManteinance",
      "outputs": [],
      "stateMutability": "nonpayable",
      "type": "function"
    },
    {
      "inputs": [
        {
          "internalType": "uint256",
          "name": "_tokenId",
          "type": "uint256"
        },
        {
          "internalType": "string",
          "name": "_tokenURI",
          "type": "string"
        }
      ],
      "name": "setURI",
      "outputs": [],
      "stateMutability": "nonpayable",
      "type": "function"
    },
    {
      "inputs": [
        {
          "internalType": "uint256",
          "name": "_tokenId",
          "type": "uint256"
        },
        {
          "internalType": "address",
          "name": "_buyer",
          "type": "address"
        },
        {
          "internalType": "uint256",
          "name": "_price",
          "type": "uint256"
        }
      ],
      "name": "tranferIntention",
      "outputs": [],
      "stateMutability": "nonpayable",
      "type": "function"
    },
    {
      "inputs": [
        {
          "internalType": "uint256",
          "name": "_tokenId",
          "type": "uint256"
        }
      ],
      "name": "deleteTranferIntention",
      "outputs": [],
      "stateMutability": "nonpayable",
      "type": "function"
    },
    {
      "inputs": [
        {
          "internalType": "uint256",
          "name": "_tokenId",
          "type": "uint256"
        }
      ],
      "name": "payTranfer",
      "outputs": [],
      "stateMutability": "payable",
      "type": "function",
      "payable": true
    },
    {
      "inputs": [
        {
          "internalType": "uint256",
          "name": "_tokenId",
          "type": "uint256"
        }
      ],
      "name": "carTransfer",
      "outputs": [],
      "stateMutability": "nonpayable",
      "type": "function"
    }
  ],
  "bytecode": "0x60806040523480156200001157600080fd5b5060405162004e8338038062004e838339818101604052810190620000379190620002da565b6040518060400160405280601c81526020017f4175746f6d6f74697665526567697374726174696f6e4167656e6379000000008152506040518060400160405280600381526020017f41524100000000000000000000000000000000000000000000000000000000008152508160009080519060200190620000bb929190620001e7565b508060019080519060200190620000d4929190620001e7565b505050620000f7620000eb6200011960201b60201c565b6200012160201b60201c565b80600c60006101000a81548160ff021916908360ff1602179055505062000370565b600033905090565b6000600860009054906101000a900473ffffffffffffffffffffffffffffffffffffffff16905081600860006101000a81548173ffffffffffffffffffffffffffffffffffffffff021916908373ffffffffffffffffffffffffffffffffffffffff1602179055508173ffffffffffffffffffffffffffffffffffffffff168173ffffffffffffffffffffffffffffffffffffffff167f8be0079c531659141344cd1fd0a4f28419497f9722a3daafe3b4186f6b6457e060405160405180910390a35050565b828054620001f5906200033b565b90600052602060002090601f01602090048101928262000219576000855562000265565b82601f106200023457805160ff191683800117855562000265565b8280016001018555821562000265579182015b828111156200026457825182559160200191906001019062000247565b5b50905062000274919062000278565b5090565b5b808211156200029357600081600090555060010162000279565b5090565b600080fd5b600060ff82169050919050565b620002b4816200029c565b8114620002c057600080fd5b50565b600081519050620002d481620002a9565b92915050565b600060208284031215620002f357620002f262000297565b5b60006200030384828501620002c3565b91505092915050565b7f4e487b7100000000000000000000000000000000000000000000000000000000600052602260045260246000fd5b600060028204905060018216806200035457607f821691505b6020821081036200036a57620003696200030c565b5b50919050565b614b0380620003806000396000f3fe6080604052600436106101cd5760003560e01c80638da5cb5b116100f7578063c87b56dd11610095578063ddca3f4311610064578063ddca3f43146106ad578063e2a6cd6d146106d8578063e985e9c514610701578063f2fde38b1461073e576101cd565b8063c87b56dd146105cb578063cb122a0914610608578063cd12757914610631578063d01f7a8714610670576101cd565b8063a22cb465116100d1578063a22cb46514610520578063b88d4fde14610549578063bf49db0114610572578063c2c1dd011461058e576101cd565b80638da5cb5b146104a157806395d89b41146104cc5780639fe9f229146104f7576101cd565b8063342a55bb1161016f57806370a082311161013e57806370a08231146103fb578063715018a614610438578063862440e21461044f578063889c4a9a14610478576101cd565b8063342a55bb1461032f57806342842e0e146103585780635cc518ba146103815780636352211e146103be576101cd565b8063095ea7b3116101ab578063095ea7b31461027757806323b872dd146102a05780632fa3dc80146102c957806331900c6b146102f2576101cd565b806301ffc9a7146101d257806306fdde031461020f578063081812fc1461023a575b600080fd5b3480156101de57600080fd5b506101f960048036038101906101f49190612fa4565b610767565b6040516102069190612fec565b60405180910390f35b34801561021b57600080fd5b50610224610849565b60405161023191906130a0565b60405180910390f35b34801561024657600080fd5b50610261600480360381019061025c91906130f8565b6108db565b60405161026e9190613166565b60405180910390f35b34801561028357600080fd5b5061029e600480360381019061029991906131ad565b610960565b005b3480156102ac57600080fd5b506102c760048036038101906102c291906131ed565b610a77565b005b3480156102d557600080fd5b506102f060048036038101906102eb9190613240565b610ad7565b005b3480156102fe57600080fd5b50610319600480360381019061031491906130f8565b610c55565b60405161032691906130a0565b60405180910390f35b34801561033b57600080fd5b50610356600480360381019061035191906133c8565b610cf5565b005b34801561036457600080fd5b5061037f600480360381019061037a91906131ed565b610df5565b005b34801561038d57600080fd5b506103a860048036038101906103a3919061345d565b610e15565b6040516103b591906130a0565b60405180910390f35b3480156103ca57600080fd5b506103e560048036038101906103e091906130f8565b610fe3565b6040516103f29190613166565b60405180910390f35b34801561040757600080fd5b50610422600480360381019061041d919061349d565b611094565b60405161042f91906134d9565b60405180910390f35b34801561044457600080fd5b5061044d61114b565b005b34801561045b57600080fd5b50610476600480360381019061047191906133c8565b6111d3565b005b34801561048457600080fd5b5061049f600480360381019061049a91906134f4565b6112a7565b005b3480156104ad57600080fd5b506104b66113c1565b6040516104c39190613166565b60405180910390f35b3480156104d857600080fd5b506104e16113eb565b6040516104ee91906130a0565b60405180910390f35b34801561050357600080fd5b5061051e600480360381019061051991906130f8565b61147d565b005b34801561052c57600080fd5b5061054760048036038101906105429190613560565b6115d4565b005b34801561055557600080fd5b50610570600480360381019061056b9190613641565b6115ea565b005b61058c600480360381019061058791906130f8565b61164c565b005b34801561059a57600080fd5b506105b560048036038101906105b091906130f8565b611867565b6040516105c29190613166565b60405180910390f35b3480156105d757600080fd5b506105f260048036038101906105ed91906130f8565b61189a565b6040516105ff91906130a0565b60405180910390f35b34801561061457600080fd5b5061062f600480360381019061062a91906136c4565b6119eb565b005b34801561063d57600080fd5b50610658600480360381019061065391906130f8565b611adc565b604051610667939291906136f1565b60405180910390f35b34801561067c57600080fd5b5061069760048036038101906106929190613728565b611b33565b6040516106a491906134d9565b60405180910390f35b3480156106b957600080fd5b506106c2611c3a565b6040516106cf91906137a6565b60405180910390f35b3480156106e457600080fd5b506106ff60048036038101906106fa91906130f8565b611c4d565b005b34801561070d57600080fd5b50610728600480360381019061072391906137c1565b611e73565b6040516107359190612fec565b60405180910390f35b34801561074a57600080fd5b506107656004803603810190610760919061349d565b611f07565b005b60007f80ac58cd000000000000000000000000000000000000000000000000000000007bffffffffffffffffffffffffffffffffffffffffffffffffffffffff1916827bffffffffffffffffffffffffffffffffffffffffffffffffffffffff1916148061083257507f5b5e139f000000000000000000000000000000000000000000000000000000007bffffffffffffffffffffffffffffffffffffffffffffffffffffffff1916827bffffffffffffffffffffffffffffffffffffffffffffffffffffffff1916145b80610842575061084182611ffe565b5b9050919050565b60606000805461085890613830565b80601f016020809104026020016040519081016040528092919081815260200182805461088490613830565b80156108d15780601f106108a6576101008083540402835291602001916108d1565b820191906000526020600020905b8154815290600101906020018083116108b457829003601f168201915b5050505050905090565b60006108e682612068565b610925576040517f08c379a000000000000000000000000000000000000000000000000000000000815260040161091c906138d3565b60405180910390fd5b6004600083815260200190815260200160002060009054906101000a900473ffffffffffffffffffffffffffffffffffffffff169050919050565b600061096b82610fe3565b90508073ffffffffffffffffffffffffffffffffffffffff168373ffffffffffffffffffffffffffffffffffffffff16036109db576040517f08c379a00000000000000000000000000000000000000000000000000000000081526004016109d290613965565b60405180910390fd5b8073ffffffffffffffffffffffffffffffffffffffff166109fa6120d4565b73ffffffffffffffffffffffffffffffffffffffff161480610a295750610a2881610a236120d4565b611e73565b5b610a68576040517f08c379a0000000000000000000000000000000000000000000000000000000008152600401610a5f906139f7565b60405180910390fd5b610a7283836120dc565b505050565b610a88610a826120d4565b82612195565b610ac7576040517f08c379a0000000000000000000000000000000000000000000000000000000008152600401610abe90613a89565b60405180910390fd5b610ad2838383612273565b505050565b610ae083612068565b610b1f576040517f08c379a0000000000000000000000000000000000000000000000000000000008152600401610b1690613b1b565b60405180910390fd5b3373ffffffffffffffffffffffffffffffffffffffff16610b3f84610fe3565b73ffffffffffffffffffffffffffffffffffffffff1614610b95576040517f08c379a0000000000000000000000000000000000000000000000000000000008152600401610b8c90613b87565b60405180910390fd5b60405180606001604052808373ffffffffffffffffffffffffffffffffffffffff16815260200182815260200160001515815250600b600085815260200190815260200160002060008201518160000160006101000a81548173ffffffffffffffffffffffffffffffffffffffff021916908373ffffffffffffffffffffffffffffffffffffffff1602179055506020820151816001015560408201518160020160006101000a81548160ff021916908315150217905550905050505050565b60076020528060005260406000206000915090508054610c7490613830565b80601f0160208091040260200160405190810160405280929190818152602001828054610ca090613830565b8015610ced5780601f10610cc257610100808354040283529160200191610ced565b820191906000526020600020905b815481529060010190602001808311610cd057829003601f168201915b505050505081565b610cfe82612068565b610d3d576040517f08c379a0000000000000000000000000000000000000000000000000000000008152600401610d3490613bf3565b60405180910390fd5b600a600083815260200190815260200160002060009054906101000a900473ffffffffffffffffffffffffffffffffffffffff1673ffffffffffffffffffffffffffffffffffffffff163373ffffffffffffffffffffffffffffffffffffffff161480610ddc5750610dad6113c1565b73ffffffffffffffffffffffffffffffffffffffff163373ffffffffffffffffffffffffffffffffffffffff16145b610de557600080fd5b610df1828260016124d9565b5050565b610e10838383604051806020016040528060008152506115ea565b505050565b6060610e2083612068565b610e5f576040517f08c379a0000000000000000000000000000000000000000000000000000000008152600401610e5690613c85565b60405180910390fd5b60008260ff161480610e74575060018260ff16145b610eb3576040517f08c379a0000000000000000000000000000000000000000000000000000000008152600401610eaa90613d17565b60405180910390fd5b606060008360ff1603610ed157610ec98461189a565b915050610fdd565b60018360ff1603610f7b57600760008581526020019081526020016000208054610efa90613830565b80601f0160208091040260200160405190810160405280929190818152602001828054610f2690613830565b8015610f735780601f10610f4857610100808354040283529160200191610f73565b820191906000526020600020905b815481529060010190602001808311610f5657829003601f168201915b505050505090505b6000610f856125c4565b90506000815103610f9a578192505050610fdd565b600082511115610fcf578082604051602001610fb7929190613d73565b60405160208183030381529060405292505050610fdd565b610fd88561189a565b925050505b92915050565b6000806002600084815260200190815260200160002060009054906101000a900473ffffffffffffffffffffffffffffffffffffffff169050600073ffffffffffffffffffffffffffffffffffffffff168173ffffffffffffffffffffffffffffffffffffffff160361108b576040517f08c379a000000000000000000000000000000000000000000000000000000000815260040161108290613e09565b60405180910390fd5b80915050919050565b60008073ffffffffffffffffffffffffffffffffffffffff168273ffffffffffffffffffffffffffffffffffffffff1603611104576040517f08c379a00000000000000000000000000000000000000000000000000000000081526004016110fb90613e9b565b60405180910390fd5b600360008373ffffffffffffffffffffffffffffffffffffffff1673ffffffffffffffffffffffffffffffffffffffff168152602001908152602001600020549050919050565b6111536120d4565b73ffffffffffffffffffffffffffffffffffffffff166111716113c1565b73ffffffffffffffffffffffffffffffffffffffff16146111c7576040517f08c379a00000000000000000000000000000000000000000000000000000000081526004016111be90613f07565b60405180910390fd5b6111d160006125db565b565b6111db6120d4565b73ffffffffffffffffffffffffffffffffffffffff166111f96113c1565b73ffffffffffffffffffffffffffffffffffffffff161461124f576040517f08c379a000000000000000000000000000000000000000000000000000000000815260040161124690613f07565b60405180910390fd5b61125882612068565b611297576040517f08c379a000000000000000000000000000000000000000000000000000000000815260040161128e90613bf3565b60405180910390fd5b6112a3828260006124d9565b5050565b6112af6120d4565b73ffffffffffffffffffffffffffffffffffffffff166112cd6113c1565b73ffffffffffffffffffffffffffffffffffffffff1614611323576040517f08c379a000000000000000000000000000000000000000000000000000000000815260040161131a90613f07565b60405180910390fd5b61132c82612068565b61136b576040517f08c379a000000000000000000000000000000000000000000000000000000000815260040161136290613bf3565b60405180910390fd5b80600a600084815260200190815260200160002060006101000a81548173ffffffffffffffffffffffffffffffffffffffff021916908373ffffffffffffffffffffffffffffffffffffffff1602179055505050565b6000600860009054906101000a900473ffffffffffffffffffffffffffffffffffffffff16905090565b6060600180546113fa90613830565b80601f016020809104026020016040519081016040528092919081815260200182805461142690613830565b80156114735780601f1061144857610100808354040283529160200191611473565b820191906000526020600020905b81548152906001019060200180831161145657829003601f168201915b5050505050905090565b61148681612068565b6114c5576040517f08c379a00000000000000000000000000000000000000000000000000000000081526004016114bc90613b1b565b60405180910390fd5b6114cd6113c1565b73ffffffffffffffffffffffffffffffffffffffff163373ffffffffffffffffffffffffffffffffffffffff16148061153957503373ffffffffffffffffffffffffffffffffffffffff1661152182610fe3565b73ffffffffffffffffffffffffffffffffffffffff16145b611578576040517f08c379a000000000000000000000000000000000000000000000000000000000815260040161156f90613b87565b60405180910390fd5b600b6000828152602001908152602001600020600080820160006101000a81549073ffffffffffffffffffffffffffffffffffffffff021916905560018201600090556002820160006101000a81549060ff0219169055505050565b6115e66115df6120d4565b83836126a1565b5050565b6115fb6115f56120d4565b83612195565b61163a576040517f08c379a000000000000000000000000000000000000000000000000000000000815260040161163190613a89565b60405180910390fd5b6116468484848461280d565b50505050565b61165581612068565b611694576040517f08c379a000000000000000000000000000000000000000000000000000000000815260040161168b90613f73565b60405180910390fd5b600073ffffffffffffffffffffffffffffffffffffffff16600b600083815260200190815260200160002060000160009054906101000a900473ffffffffffffffffffffffffffffffffffffffff1673ffffffffffffffffffffffffffffffffffffffff1603611739576040517f08c379a000000000000000000000000000000000000000000000000000000000815260040161173090614005565b60405180910390fd5b3373ffffffffffffffffffffffffffffffffffffffff16600b600083815260200190815260200160002060000160009054906101000a900473ffffffffffffffffffffffffffffffffffffffff1673ffffffffffffffffffffffffffffffffffffffff16146117dd576040517f08c379a00000000000000000000000000000000000000000000000000000000081526004016117d490614097565b60405180910390fd5b600b6000828152602001908152602001600020600101543414611835576040517f08c379a000000000000000000000000000000000000000000000000000000000815260040161182c90614103565b60405180910390fd5b6001600b600083815260200190815260200160002060020160006101000a81548160ff02191690831515021790555050565b600a6020528060005260406000206000915054906101000a900473ffffffffffffffffffffffffffffffffffffffff1681565b60606118a582612068565b6118e4576040517f08c379a00000000000000000000000000000000000000000000000000000000081526004016118db90614195565b60405180910390fd5b600060066000848152602001908152602001600020805461190490613830565b80601f016020809104026020016040519081016040528092919081815260200182805461193090613830565b801561197d5780601f106119525761010080835404028352916020019161197d565b820191906000526020600020905b81548152906001019060200180831161196057829003601f168201915b50505050509050600061198e6125c4565b905060008151036119a35781925050506119e6565b6000825111156119d85780826040516020016119c0929190613d73565b604051602081830303815290604052925050506119e6565b6119e184612869565b925050505b919050565b6119f36120d4565b73ffffffffffffffffffffffffffffffffffffffff16611a116113c1565b73ffffffffffffffffffffffffffffffffffffffff1614611a67576040517f08c379a0000000000000000000000000000000000000000000000000000000008152600401611a5e90613f07565b60405180910390fd5b60008160ff1610158015611a7f575060648160ff1611155b611abe576040517f08c379a0000000000000000000000000000000000000000000000000000000008152600401611ab590614201565b60405180910390fd5b80600c60006101000a81548160ff021916908360ff16021790555050565b600b6020528060005260406000206000915090508060000160009054906101000a900473ffffffffffffffffffffffffffffffffffffffff16908060010154908060020160009054906101000a900460ff16905083565b6000611b3d6120d4565b73ffffffffffffffffffffffffffffffffffffffff16611b5b6113c1565b73ffffffffffffffffffffffffffffffffffffffff1614611bb1576040517f08c379a0000000000000000000000000000000000000000000000000000000008152600401611ba890613f07565b60405180910390fd5b611bbb6009612910565b6000611bc76009612926565b9050611bd38582612934565b611bdd8185612b0d565b82600a600083815260200190815260200160002060006101000a81548173ffffffffffffffffffffffffffffffffffffffff021916908373ffffffffffffffffffffffffffffffffffffffff160217905550809150509392505050565b600c60009054906101000a900460ff1681565b611c5681612068565b611c95576040517f08c379a0000000000000000000000000000000000000000000000000000000008152600401611c8c90613f73565b60405180910390fd5b600b600082815260200190815260200160002060020160009054906101000a900460ff16611cf8576040517f08c379a0000000000000000000000000000000000000000000000000000000008152600401611cef9061426d565b60405180910390fd5b3373ffffffffffffffffffffffffffffffffffffffff16611d1882610fe3565b73ffffffffffffffffffffffffffffffffffffffff1614611d3857600080fd5b611d4181610fe3565b73ffffffffffffffffffffffffffffffffffffffff166108fc60646002600b600086815260200190815260200160002060010154611d7f91906142bc565b611d899190614345565b600b600085815260200190815260200160002060010154611daa9190614376565b9081150290604051600060405180830381858888f19350505050158015611dd5573d6000803e3d6000fd5b50611e1733600b600084815260200190815260200160002060000160009054906101000a900473ffffffffffffffffffffffffffffffffffffffff1683610a77565b600b6000828152602001908152602001600020600080820160006101000a81549073ffffffffffffffffffffffffffffffffffffffff021916905560018201600090556002820160006101000a81549060ff0219169055505050565b6000600560008473ffffffffffffffffffffffffffffffffffffffff1673ffffffffffffffffffffffffffffffffffffffff16815260200190815260200160002060008373ffffffffffffffffffffffffffffffffffffffff1673ffffffffffffffffffffffffffffffffffffffff16815260200190815260200160002060009054906101000a900460ff16905092915050565b611f0f6120d4565b73ffffffffffffffffffffffffffffffffffffffff16611f2d6113c1565b73ffffffffffffffffffffffffffffffffffffffff1614611f83576040517f08c379a0000000000000000000000000000000000000000000000000000000008152600401611f7a90613f07565b60405180910390fd5b600073ffffffffffffffffffffffffffffffffffffffff168173ffffffffffffffffffffffffffffffffffffffff1603611ff2576040517f08c379a0000000000000000000000000000000000000000000000000000000008152600401611fe99061441c565b60405180910390fd5b611ffb816125db565b50565b60007f01ffc9a7000000000000000000000000000000000000000000000000000000007bffffffffffffffffffffffffffffffffffffffffffffffffffffffff1916827bffffffffffffffffffffffffffffffffffffffffffffffffffffffff1916149050919050565b60008073ffffffffffffffffffffffffffffffffffffffff166002600084815260200190815260200160002060009054906101000a900473ffffffffffffffffffffffffffffffffffffffff1673ffffffffffffffffffffffffffffffffffffffff1614159050919050565b600033905090565b816004600083815260200190815260200160002060006101000a81548173ffffffffffffffffffffffffffffffffffffffff021916908373ffffffffffffffffffffffffffffffffffffffff160217905550808273ffffffffffffffffffffffffffffffffffffffff1661214f83610fe3565b73ffffffffffffffffffffffffffffffffffffffff167f8c5be1e5ebec7d5bd14f71427d1e84f3dd0314c0f7b2291e5b200ac8c7c3b92560405160405180910390a45050565b60006121a082612068565b6121df576040517f08c379a00000000000000000000000000000000000000000000000000000000081526004016121d6906144ae565b60405180910390fd5b60006121ea83610fe3565b90508073ffffffffffffffffffffffffffffffffffffffff168473ffffffffffffffffffffffffffffffffffffffff16148061222c575061222b8185611e73565b5b8061226a57508373ffffffffffffffffffffffffffffffffffffffff16612252846108db565b73ffffffffffffffffffffffffffffffffffffffff16145b91505092915050565b8273ffffffffffffffffffffffffffffffffffffffff1661229382610fe3565b73ffffffffffffffffffffffffffffffffffffffff16146122e9576040517f08c379a00000000000000000000000000000000000000000000000000000000081526004016122e090614540565b60405180910390fd5b600073ffffffffffffffffffffffffffffffffffffffff168273ffffffffffffffffffffffffffffffffffffffff1603612358576040517f08c379a000000000000000000000000000000000000000000000000000000000815260040161234f906145d2565b60405180910390fd5b612363838383612b81565b61236e6000826120dc565b6001600360008573ffffffffffffffffffffffffffffffffffffffff1673ffffffffffffffffffffffffffffffffffffffff16815260200190815260200160002060008282546123be9190614376565b925050819055506001600360008473ffffffffffffffffffffffffffffffffffffffff1673ffffffffffffffffffffffffffffffffffffffff168152602001908152602001600020600082825461241591906145f2565b92505081905550816002600083815260200190815260200160002060006101000a81548173ffffffffffffffffffffffffffffffffffffffff021916908373ffffffffffffffffffffffffffffffffffffffff160217905550808273ffffffffffffffffffffffffffffffffffffffff168473ffffffffffffffffffffffffffffffffffffffff167fddf252ad1be2c89b69c2b068fc378daa952ba7f163c4a11628f55a4df523b3ef60405160405180910390a46124d4838383612b86565b505050565b6124e283612068565b612521576040517f08c379a0000000000000000000000000000000000000000000000000000000008152600401612518906146ba565b60405180910390fd5b60008160ff161480612536575060018160ff16145b612575576040517f08c379a000000000000000000000000000000000000000000000000000000000815260040161256c90613d17565b60405180910390fd5b60008160ff160361258b5761258a8383612b0d565b5b60018160ff16036125bf57816007600085815260200190815260200160002090805190602001906125bd929190612e95565b505b505050565b606060405180602001604052806000815250905090565b6000600860009054906101000a900473ffffffffffffffffffffffffffffffffffffffff16905081600860006101000a81548173ffffffffffffffffffffffffffffffffffffffff021916908373ffffffffffffffffffffffffffffffffffffffff1602179055508173ffffffffffffffffffffffffffffffffffffffff168173ffffffffffffffffffffffffffffffffffffffff167f8be0079c531659141344cd1fd0a4f28419497f9722a3daafe3b4186f6b6457e060405160405180910390a35050565b8173ffffffffffffffffffffffffffffffffffffffff168373ffffffffffffffffffffffffffffffffffffffff160361270f576040517f08c379a000000000000000000000000000000000000000000000000000000000815260040161270690614726565b60405180910390fd5b80600560008573ffffffffffffffffffffffffffffffffffffffff1673ffffffffffffffffffffffffffffffffffffffff16815260200190815260200160002060008473ffffffffffffffffffffffffffffffffffffffff1673ffffffffffffffffffffffffffffffffffffffff16815260200190815260200160002060006101000a81548160ff0219169083151502179055508173ffffffffffffffffffffffffffffffffffffffff168373ffffffffffffffffffffffffffffffffffffffff167f17307eab39ab6107e8899845ad3d59bd9653f200f220920489ca2b5937696c31836040516128009190612fec565b60405180910390a3505050565b612818848484612273565b61282484848484612b8b565b612863576040517f08c379a000000000000000000000000000000000000000000000000000000000815260040161285a906147b8565b60405180910390fd5b50505050565b606061287482612068565b6128b3576040517f08c379a00000000000000000000000000000000000000000000000000000000081526004016128aa9061484a565b60405180910390fd5b60006128bd6125c4565b905060008151116128dd5760405180602001604052806000815250612908565b806128e784612d12565b6040516020016128f8929190613d73565b6040516020818303038152906040525b915050919050565b6001816000016000828254019250508190555050565b600081600001549050919050565b600073ffffffffffffffffffffffffffffffffffffffff168273ffffffffffffffffffffffffffffffffffffffff16036129a3576040517f08c379a000000000000000000000000000000000000000000000000000000000815260040161299a906148b6565b60405180910390fd5b6129ac81612068565b156129ec576040517f08c379a00000000000000000000000000000000000000000000000000000000081526004016129e390614922565b60405180910390fd5b6129f860008383612b81565b6001600360008473ffffffffffffffffffffffffffffffffffffffff1673ffffffffffffffffffffffffffffffffffffffff1681526020019081526020016000206000828254612a4891906145f2565b92505081905550816002600083815260200190815260200160002060006101000a81548173ffffffffffffffffffffffffffffffffffffffff021916908373ffffffffffffffffffffffffffffffffffffffff160217905550808273ffffffffffffffffffffffffffffffffffffffff16600073ffffffffffffffffffffffffffffffffffffffff167fddf252ad1be2c89b69c2b068fc378daa952ba7f163c4a11628f55a4df523b3ef60405160405180910390a4612b0960008383612b86565b5050565b612b1682612068565b612b55576040517f08c379a0000000000000000000000000000000000000000000000000000000008152600401612b4c906146ba565b60405180910390fd5b80600660008481526020019081526020016000209080519060200190612b7c929190612e95565b505050565b505050565b505050565b6000612bac8473ffffffffffffffffffffffffffffffffffffffff16612e72565b15612d05578373ffffffffffffffffffffffffffffffffffffffff1663150b7a02612bd56120d4565b8786866040518563ffffffff1660e01b8152600401612bf79493929190614997565b6020604051808303816000875af1925050508015612c3357506040513d601f19601f82011682018060405250810190612c3091906149f8565b60015b612cb5573d8060008114612c63576040519150601f19603f3d011682016040523d82523d6000602084013e612c68565b606091505b506000815103612cad576040517f08c379a0000000000000000000000000000000000000000000000000000000008152600401612ca4906147b8565b60405180910390fd5b805181602001fd5b63150b7a0260e01b7bffffffffffffffffffffffffffffffffffffffffffffffffffffffff1916817bffffffffffffffffffffffffffffffffffffffffffffffffffffffff191614915050612d0a565b600190505b949350505050565b606060008203612d59576040518060400160405280600181526020017f30000000000000000000000000000000000000000000000000000000000000008152509050612e6d565b600082905060005b60008214612d8b578080612d7490614a25565b915050600a82612d849190614345565b9150612d61565b60008167ffffffffffffffff811115612da757612da661329d565b5b6040519080825280601f01601f191660200182016040528015612dd95781602001600182028036833780820191505090505b5090505b60008514612e6657600182612df29190614376565b9150600a85612e019190614a6d565b6030612e0d91906145f2565b60f81b818381518110612e2357612e22614a9e565b5b60200101907effffffffffffffffffffffffffffffffffffffffffffffffffffffffffffff1916908160001a905350600a85612e5f9190614345565b9450612ddd565b8093505050505b919050565b6000808273ffffffffffffffffffffffffffffffffffffffff163b119050919050565b828054612ea190613830565b90600052602060002090601f016020900481019282612ec35760008555612f0a565b82601f10612edc57805160ff1916838001178555612f0a565b82800160010185558215612f0a579182015b82811115612f09578251825591602001919060010190612eee565b5b509050612f179190612f1b565b5090565b5b80821115612f34576000816000905550600101612f1c565b5090565b6000604051905090565b600080fd5b600080fd5b60007fffffffff0000000000000000000000000000000000000000000000000000000082169050919050565b612f8181612f4c565b8114612f8c57600080fd5b50565b600081359050612f9e81612f78565b92915050565b600060208284031215612fba57612fb9612f42565b5b6000612fc884828501612f8f565b91505092915050565b60008115159050919050565b612fe681612fd1565b82525050565b60006020820190506130016000830184612fdd565b92915050565b600081519050919050565b600082825260208201905092915050565b60005b83811015613041578082015181840152602081019050613026565b83811115613050576000848401525b50505050565b6000601f19601f8301169050919050565b600061307282613007565b61307c8185613012565b935061308c818560208601613023565b61309581613056565b840191505092915050565b600060208201905081810360008301526130ba8184613067565b905092915050565b6000819050919050565b6130d5816130c2565b81146130e057600080fd5b50565b6000813590506130f2816130cc565b92915050565b60006020828403121561310e5761310d612f42565b5b600061311c848285016130e3565b91505092915050565b600073ffffffffffffffffffffffffffffffffffffffff82169050919050565b600061315082613125565b9050919050565b61316081613145565b82525050565b600060208201905061317b6000830184613157565b92915050565b61318a81613145565b811461319557600080fd5b50565b6000813590506131a781613181565b92915050565b600080604083850312156131c4576131c3612f42565b5b60006131d285828601613198565b92505060206131e3858286016130e3565b9150509250929050565b60008060006060848603121561320657613205612f42565b5b600061321486828701613198565b935050602061322586828701613198565b9250506040613236868287016130e3565b9150509250925092565b60008060006060848603121561325957613258612f42565b5b6000613267868287016130e3565b935050602061327886828701613198565b9250506040613289868287016130e3565b9150509250925092565b600080fd5b600080fd5b7f4e487b7100000000000000000000000000000000000000000000000000000000600052604160045260246000fd5b6132d582613056565b810181811067ffffffffffffffff821117156132f4576132f361329d565b5b80604052505050565b6000613307612f38565b905061331382826132cc565b919050565b600067ffffffffffffffff8211156133335761333261329d565b5b61333c82613056565b9050602081019050919050565b82818337600083830152505050565b600061336b61336684613318565b6132fd565b90508281526020810184848401111561338757613386613298565b5b613392848285613349565b509392505050565b600082601f8301126133af576133ae613293565b5b81356133bf848260208601613358565b91505092915050565b600080604083850312156133df576133de612f42565b5b60006133ed858286016130e3565b925050602083013567ffffffffffffffff81111561340e5761340d612f47565b5b61341a8582860161339a565b9150509250929050565b600060ff82169050919050565b61343a81613424565b811461344557600080fd5b50565b60008135905061345781613431565b92915050565b6000806040838503121561347457613473612f42565b5b6000613482858286016130e3565b925050602061349385828601613448565b9150509250929050565b6000602082840312156134b3576134b2612f42565b5b60006134c184828501613198565b91505092915050565b6134d3816130c2565b82525050565b60006020820190506134ee60008301846134ca565b92915050565b6000806040838503121561350b5761350a612f42565b5b6000613519858286016130e3565b925050602061352a85828601613198565b9150509250929050565b61353d81612fd1565b811461354857600080fd5b50565b60008135905061355a81613534565b92915050565b6000806040838503121561357757613576612f42565b5b600061358585828601613198565b92505060206135968582860161354b565b9150509250929050565b600067ffffffffffffffff8211156135bb576135ba61329d565b5b6135c482613056565b9050602081019050919050565b60006135e46135df846135a0565b6132fd565b905082815260208101848484011115613600576135ff613298565b5b61360b848285613349565b509392505050565b600082601f83011261362857613627613293565b5b81356136388482602086016135d1565b91505092915050565b6000806000806080858703121561365b5761365a612f42565b5b600061366987828801613198565b945050602061367a87828801613198565b935050604061368b878288016130e3565b925050606085013567ffffffffffffffff8111156136ac576136ab612f47565b5b6136b887828801613613565b91505092959194509250565b6000602082840312156136da576136d9612f42565b5b60006136e884828501613448565b91505092915050565b60006060820190506137066000830186613157565b61371360208301856134ca565b6137206040830184612fdd565b949350505050565b60008060006060848603121561374157613740612f42565b5b600061374f86828701613198565b935050602084013567ffffffffffffffff8111156137705761376f612f47565b5b61377c8682870161339a565b925050604061378d86828701613198565b9150509250925092565b6137a081613424565b82525050565b60006020820190506137bb6000830184613797565b92915050565b600080604083850312156137d8576137d7612f42565b5b60006137e685828601613198565b92505060206137f785828601613198565b9150509250929050565b7f4e487b7100000000000000000000000000000000000000000000000000000000600052602260045260246000fd5b6000600282049050600182168061384857607f821691505b60208210810361385b5761385a613801565b5b50919050565b7f4552433732313a20617070726f76656420717565727920666f72206e6f6e657860008201527f697374656e7420746f6b656e0000000000000000000000000000000000000000602082015250565b60006138bd602c83613012565b91506138c882613861565b604082019050919050565b600060208201905081810360008301526138ec816138b0565b9050919050565b7f4552433732313a20617070726f76616c20746f2063757272656e74206f776e6560008201527f7200000000000000000000000000000000000000000000000000000000000000602082015250565b600061394f602183613012565b915061395a826138f3565b604082019050919050565b6000602082019050818103600083015261397e81613942565b9050919050565b7f4552433732313a20617070726f76652063616c6c6572206973206e6f74206f7760008201527f6e6572206e6f7220617070726f76656420666f7220616c6c0000000000000000602082015250565b60006139e1603883613012565b91506139ec82613985565b604082019050919050565b60006020820190508181036000830152613a10816139d4565b9050919050565b7f4552433732313a207472616e736665722063616c6c6572206973206e6f74206f60008201527f776e6572206e6f7220617070726f766564000000000000000000000000000000602082015250565b6000613a73603183613012565b9150613a7e82613a17565b604082019050919050565b60006020820190508181036000830152613aa281613a66565b9050919050565b7f5472616e66657220696e74656e74696f6e20666f72206e6f6e6578697374656e60008201527f7420746f6b656e00000000000000000000000000000000000000000000000000602082015250565b6000613b05602783613012565b9150613b1082613aa9565b604082019050919050565b60006020820190508181036000830152613b3481613af8565b9050919050565b7f4e6f7420746865206f776e6572206f6620746865206361720000000000000000600082015250565b6000613b71601883613012565b9150613b7c82613b3b565b602082019050919050565b60006020820190508181036000830152613ba081613b64565b9050919050565b7f55524920717565727920666f72206e6f6e6578697374656e7420746f6b656e00600082015250565b6000613bdd601f83613012565b9150613be882613ba7565b602082019050919050565b60006020820190508181036000830152613c0c81613bd0565b9050919050565b7f45524337323155524953746f726167655f657874656e6465643a20555249207160008201527f7565727920666f72206e6f6e6578697374656e7420746f6b656e000000000000602082015250565b6000613c6f603a83613012565b9150613c7a82613c13565b604082019050919050565b60006020820190508181036000830152613c9e81613c62565b9050919050565b7f45524337323155524953746f726167655f657874656e6465643a20496e76616c60008201527f6964205552492054797065000000000000000000000000000000000000000000602082015250565b6000613d01602b83613012565b9150613d0c82613ca5565b604082019050919050565b60006020820190508181036000830152613d3081613cf4565b9050919050565b600081905092915050565b6000613d4d82613007565b613d578185613d37565b9350613d67818560208601613023565b80840191505092915050565b6000613d7f8285613d42565b9150613d8b8284613d42565b91508190509392505050565b7f4552433732313a206f776e657220717565727920666f72206e6f6e657869737460008201527f656e7420746f6b656e0000000000000000000000000000000000000000000000602082015250565b6000613df3602983613012565b9150613dfe82613d97565b604082019050919050565b60006020820190508181036000830152613e2281613de6565b9050919050565b7f4552433732313a2062616c616e636520717565727920666f7220746865207a6560008201527f726f206164647265737300000000000000000000000000000000000000000000602082015250565b6000613e85602a83613012565b9150613e9082613e29565b604082019050919050565b60006020820190508181036000830152613eb481613e78565b9050919050565b7f4f776e61626c653a2063616c6c6572206973206e6f7420746865206f776e6572600082015250565b6000613ef1602083613012565b9150613efc82613ebb565b602082019050919050565b60006020820190508181036000830152613f2081613ee4565b9050919050565b7f4e6f6e6578697374656e7420746f6b656e000000000000000000000000000000600082015250565b6000613f5d601183613012565b9150613f6882613f27565b602082019050919050565b60006020820190508181036000830152613f8c81613f50565b9050919050565b7f4e6f207472616e66657220696e74656e74696f6e20666f72207468697320636160008201527f7200000000000000000000000000000000000000000000000000000000000000602082015250565b6000613fef602183613012565b9150613ffa82613f93565b604082019050919050565b6000602082019050818103600083015261401e81613fe2565b9050919050565b7f4e6f207472616e66657220696e74656e74696f6e20666f72207468652073656e60008201527f6465720000000000000000000000000000000000000000000000000000000000602082015250565b6000614081602383613012565b915061408c82614025565b604082019050919050565b600060208201905081810360008301526140b081614074565b9050919050565b7f4e6f7420746865206163636f7264656420707269636500000000000000000000600082015250565b60006140ed601683613012565b91506140f8826140b7565b602082019050919050565b6000602082019050818103600083015261411c816140e0565b9050919050565b7f45524337323155524953746f726167653a2055524920717565727920666f722060008201527f6e6f6e6578697374656e7420746f6b656e000000000000000000000000000000602082015250565b600061417f603183613012565b915061418a82614123565b604082019050919050565b600060208201905081810360008301526141ae81614172565b9050919050565b7f496e76616964206665652076616c756500000000000000000000000000000000600082015250565b60006141eb601083613012565b91506141f6826141b5565b602082019050919050565b6000602082019050818103600083015261421a816141de565b9050919050565b7f4e6f742070616964210000000000000000000000000000000000000000000000600082015250565b6000614257600983613012565b915061426282614221565b602082019050919050565b600060208201905081810360008301526142868161424a565b9050919050565b7f4e487b7100000000000000000000000000000000000000000000000000000000600052601160045260246000fd5b60006142c7826130c2565b91506142d2836130c2565b9250817fffffffffffffffffffffffffffffffffffffffffffffffffffffffffffffffff048311821515161561430b5761430a61428d565b5b828202905092915050565b7f4e487b7100000000000000000000000000000000000000000000000000000000600052601260045260246000fd5b6000614350826130c2565b915061435b836130c2565b92508261436b5761436a614316565b5b828204905092915050565b6000614381826130c2565b915061438c836130c2565b92508282101561439f5761439e61428d565b5b828203905092915050565b7f4f776e61626c653a206e6577206f776e657220697320746865207a65726f206160008201527f6464726573730000000000000000000000000000000000000000000000000000602082015250565b6000614406602683613012565b9150614411826143aa565b604082019050919050565b60006020820190508181036000830152614435816143f9565b9050919050565b7f4552433732313a206f70657261746f7220717565727920666f72206e6f6e657860008201527f697374656e7420746f6b656e0000000000000000000000000000000000000000602082015250565b6000614498602c83613012565b91506144a38261443c565b604082019050919050565b600060208201905081810360008301526144c78161448b565b9050919050565b7f4552433732313a207472616e736665722066726f6d20696e636f72726563742060008201527f6f776e6572000000000000000000000000000000000000000000000000000000602082015250565b600061452a602583613012565b9150614535826144ce565b604082019050919050565b600060208201905081810360008301526145598161451d565b9050919050565b7f4552433732313a207472616e7366657220746f20746865207a65726f2061646460008201527f7265737300000000000000000000000000000000000000000000000000000000602082015250565b60006145bc602483613012565b91506145c782614560565b604082019050919050565b600060208201905081810360008301526145eb816145af565b9050919050565b60006145fd826130c2565b9150614608836130c2565b9250827fffffffffffffffffffffffffffffffffffffffffffffffffffffffffffffffff0382111561463d5761463c61428d565b5b828201905092915050565b7f45524337323155524953746f726167653a2055524920736574206f66206e6f6e60008201527f6578697374656e7420746f6b656e000000000000000000000000000000000000602082015250565b60006146a4602e83613012565b91506146af82614648565b604082019050919050565b600060208201905081810360008301526146d381614697565b9050919050565b7f4552433732313a20617070726f766520746f2063616c6c657200000000000000600082015250565b6000614710601983613012565b915061471b826146da565b602082019050919050565b6000602082019050818103600083015261473f81614703565b9050919050565b7f4552433732313a207472616e7366657220746f206e6f6e20455243373231526560008201527f63656976657220696d706c656d656e7465720000000000000000000000000000602082015250565b60006147a2603283613012565b91506147ad82614746565b604082019050919050565b600060208201905081810360008301526147d181614795565b9050919050565b7f4552433732314d657461646174613a2055524920717565727920666f72206e6f60008201527f6e6578697374656e7420746f6b656e0000000000000000000000000000000000602082015250565b6000614834602f83613012565b915061483f826147d8565b604082019050919050565b6000602082019050818103600083015261486381614827565b9050919050565b7f4552433732313a206d696e7420746f20746865207a65726f2061646472657373600082015250565b60006148a0602083613012565b91506148ab8261486a565b602082019050919050565b600060208201905081810360008301526148cf81614893565b9050919050565b7f4552433732313a20746f6b656e20616c7265616479206d696e74656400000000600082015250565b600061490c601c83613012565b9150614917826148d6565b602082019050919050565b6000602082019050818103600083015261493b816148ff565b9050919050565b600081519050919050565b600082825260208201905092915050565b600061496982614942565b614973818561494d565b9350614983818560208601613023565b61498c81613056565b840191505092915050565b60006080820190506149ac6000830187613157565b6149b96020830186613157565b6149c660408301856134ca565b81810360608301526149d8818461495e565b905095945050505050565b6000815190506149f281612f78565b92915050565b600060208284031215614a0e57614a0d612f42565b5b6000614a1c848285016149e3565b91505092915050565b6000614a30826130c2565b91507fffffffffffffffffffffffffffffffffffffffffffffffffffffffffffffffff8203614a6257614a6161428d565b5b600182019050919050565b6000614a78826130c2565b9150614a83836130c2565b925082614a9357614a92614316565b5b828206905092915050565b7f4e487b7100000000000000000000000000000000000000000000000000000000600052603260045260246000fdfea2646970667358221220687b5dfc75c36838fd471944908e63474922979a8dffc5fe12ce15760fe3625564736f6c634300080e0033",
  "immutableReferences": {},
  "source": "\n// SPDX-License-Identifier: MIT\npragma solidity ^0.8.14;\n\nimport \"@openzeppelin/contracts/token/ERC721/ERC721.sol\";\nimport \"@openzeppelin/contracts/utils/Counters.sol\";\nimport \"@openzeppelin/contracts/access/Ownable.sol\";\nimport \"./ERC721URIStorage_extended.sol\";\n\ncontract carRegistrationContract is ERC721URIStorage_extended,Ownable{\n  using Counters for Counters.Counter;\n\n  Counters.Counter private tokenId;\n  mapping(uint256 => address) public _allowedManteninance;\n\n  struct TransferStruct{\n    address buyer;\n    uint256 price;\n    bool paid;\n  }\n\n  mapping(uint256 => TransferStruct) public _tranferIntentions;\n\n  uint8 public fee;\n\n  constructor(uint8 _fee) ERC721(\"AutomotiveRegistrationAgency\", \"ARA\"){\n    fee = _fee;\n  }\n\n  function mintNFT(address _owner, string memory _tokenURI, address _manteinanceAgency) public onlyOwner returns (uint256){\n    tokenId.increment();\n    uint256 newId = tokenId.current();\n    _mint(_owner, newId);\n    _setTokenURI(newId, _tokenURI);\n    _allowedManteninance[newId] = _manteinanceAgency;\n    return newId;\n  }\n\n  function setAllowedManteinance(uint256 _tokenId, address _allowed) external onlyOwner{\n      require(_exists(_tokenId), \"URI query for nonexistent token\");\n      _allowedManteninance[_tokenId] = _allowed;\n    }\n\n\n    function setFee(uint8 _newFee) external onlyOwner{\n      require(_newFee >= 0 && _newFee <= 100, \"Invaid fee value\");\n      fee = _newFee;\n    }\n\n  //I defined 3 types of URIs and I assign an identification number for each.\n  //I dont like \"maggic numbers\" but as far as I know there is not a #define macro\n  //in solidity and, on the other hand, to declare const global variable\n  //would implicate gas consumition.\n  //URIType 0 -> tokenURI\n  //URIType 1 -> _tokenURI_maintenances\n\n\n  function setURIManteinance(uint256 _tokenId, string memory _tokenURI) external {\n    require(_exists(_tokenId), \"URI query for nonexistent token\");\n    require(msg.sender == _allowedManteninance[_tokenId] || msg.sender == owner());\n    _setTokenURI(_tokenId, _tokenURI, 1);\n\n  }\n\n\n  function setURI(uint256 _tokenId, string memory _tokenURI) external onlyOwner{\n    require(_exists(_tokenId), \"URI query for nonexistent token\");\n    _setTokenURI(_tokenId, _tokenURI, 0);\n  }\n\n\n//TRANSFER INTENTION FUNTIONS\n\n  function tranferIntention(uint256 _tokenId, address _buyer, uint256 _price) external{\n    require(_exists(_tokenId), \"Tranfer intention for nonexistent token\");\n    require(ownerOf(_tokenId) == msg.sender, \"Not the owner of the car\");\n\n    _tranferIntentions[_tokenId] = TransferStruct(_buyer,_price, false);\n  }\n\n  function deleteTranferIntention(uint256 _tokenId) external{\n    require(_exists(_tokenId), \"Tranfer intention for nonexistent token\");\n    require( (msg.sender == owner()) || (ownerOf(_tokenId) == msg.sender), \"Not the owner of the car\");\n\n    delete _tranferIntentions[_tokenId];\n  }\n\n  function payTranfer(uint256 _tokenId) external payable{\n    require(_exists(_tokenId), \"Nonexistent token\");\n    require(_tranferIntentions[_tokenId].buyer != address(0), \"No tranfer intention for this car\");\n    require(_tranferIntentions[_tokenId].buyer == msg.sender, \"No tranfer intention for the sender\");\n    require(msg.value == _tranferIntentions[_tokenId].price, \"Not the accorded price\");\n\n    _tranferIntentions[_tokenId].paid = true;\n  }\n\n  function carTransfer(uint256 _tokenId) external{\n    require(_exists(_tokenId), \"Nonexistent token\");\n    require(_tranferIntentions[_tokenId].paid, \"Not paid!\");\n    require(ownerOf(_tokenId) == msg.sender);\n    //Possible vulnerability, please check!\n\n    payable(ownerOf(_tokenId)).transfer(_tranferIntentions[_tokenId].price - (_tranferIntentions[_tokenId].price * 2 / 100));\n    transferFrom(msg.sender, _tranferIntentions[_tokenId].buyer, _tokenId);\n\n    delete _tranferIntentions[_tokenId];\n  }\n\n\n}\n",
  "sourcePath": "/home/julian/education/carRegistration/contracts/carRegistrationContract.sol",
  "compiler": {
    "name": "solc",
    "version": "0.8.14+commit.80d49f37.Emscripten.clang"
  },
  "schemaVersion": "3.4.7",
  "updatedAt": "2022-06-16T16:49:13.031Z",
  "networkType": "ethereum",
  "devdoc": {
    "kind": "dev",
    "methods": {
      "approve(address,uint256)": {
        "details": "See {IERC721-approve}."
      },
      "balanceOf(address)": {
        "details": "See {IERC721-balanceOf}."
      },
      "getApproved(uint256)": {
        "details": "See {IERC721-getApproved}."
      },
      "isApprovedForAll(address,address)": {
        "details": "See {IERC721-isApprovedForAll}."
      },
      "name()": {
        "details": "See {IERC721Metadata-name}."
      },
      "owner()": {
        "details": "Returns the address of the current owner."
      },
      "ownerOf(uint256)": {
        "details": "See {IERC721-ownerOf}."
      },
      "renounceOwnership()": {
        "details": "Leaves the contract without owner. It will not be possible to call `onlyOwner` functions anymore. Can only be called by the current owner. NOTE: Renouncing ownership will leave the contract without an owner, thereby removing any functionality that is only available to the owner."
      },
      "safeTransferFrom(address,address,uint256)": {
        "details": "See {IERC721-safeTransferFrom}."
      },
      "safeTransferFrom(address,address,uint256,bytes)": {
        "details": "See {IERC721-safeTransferFrom}."
      },
      "setApprovalForAll(address,bool)": {
        "details": "See {IERC721-setApprovalForAll}."
      },
      "supportsInterface(bytes4)": {
        "details": "See {IERC165-supportsInterface}."
      },
      "symbol()": {
        "details": "See {IERC721Metadata-symbol}."
      },
      "tokenURI(uint256)": {
        "details": "See {IERC721Metadata-tokenURI}."
      },
      "tokenURI(uint256,uint8)": {
        "details": "See {IERC721Metadata-tokenURI}."
      },
      "transferFrom(address,address,uint256)": {
        "details": "See {IERC721-transferFrom}."
      },
      "transferOwnership(address)": {
        "details": "Transfers ownership of the contract to a new account (`newOwner`). Can only be called by the current owner."
      }
    },
    "version": 1
  },
  "userdoc": {
    "kind": "user",
    "methods": {},
    "version": 1
  }
}